:020000040800F2
:100000004008002089010008BF290008C520000819
:10001000BD290008F5030008112C000800000000AD
:10002000000000000000000000000000C3290008DC
:10003000CB08000800000000C1290008C5290008FD
:10004000A3010008A3010008A3010008A301000800
:10005000A3010008A3010008A3010008A3010008F0
:10006000A3010008A3010008A301000895080008E7
:10007000A3010008A3010008A3010008A3010008D0
:10008000A3010008A3010008A3010008A3010008C0
:10009000A3010008A3010008A3010008A3010008B0
:1000A000A3010008A3010008A3010008A3010008A0
:1000B000A3010008A3010008A3010008A301000890
:1000C000A3010008A3010008A3010008A301000880
:1000D000A3010008A3010008A3010008A301000870
:1000E000A3010008A3010008A301000800F002F822
:1000F00000F03AF80AA090E8000C82448344AAF188
:100100000107DA4501D100F02FF8AFF2090EBAE885
:100110000F0013F0010F18BFFB1A43F0010318473B
:10012000F844000018450000103A24BF78C878C190
:10013000FAD8520724BF30C830C144BF04680C60ED
:10014000704700000023002400250026103A28BF35
:1001500078C1FBD8520728BF30C148BF0B60704739
:100160001FB51FBD10B510BD00F06CF81146FFF7AC
:10017000F7FF03F093F800F08AF803B4FFF7F2FFFB
:1001800003BC00F08DF8000009488047094800478B
:10019000FEE7FEE7FEE7FEE7FEE7FEE7FEE7FEE737
:1001A000FEE7FEE704480549054A064B7047000094
:1001B000412A0008ED00000840020020400800200D
:1001C00040040020400400204FF0000200B5134618
:1001D00094469646203922BFA0E80C50A0E80C5067
:1001E000B1F12001BFF4F7AF090728BFA0E80C5018
:1001F00048BF0CC05DF804EB890028BF40F8042B11
:1002000008BF704748BF20F8022B11F0804F18BF7D
:1002100000F8012B704770477047704710B500F029
:1002200009F8006810BD10B5044600F003F804603A
:1002300010BD000000487047E001002000487047F2
:10024000E00100207546FFF7F9FFAE46050069465C
:10025000534620F00700854618B020B5FFF7A2FFEF
:10026000BDE820404FF000064FF000074FF00008B7
:100270004FF0000B21F00701AC46ACE8C009ACE838
:10028000C009ACE8C009ACE8C0098D46704710B59C
:100290000446AFF300802046BDE81040FFF76DBF75
:1002A00001491820ABBEFEE726000200704700009F
:1002B00070B5044600688168C943C90717D18168D1
:1002C00021F00101816000F04BFF05460AE000BF0C
:1002D00000F046FF401B022804D920688068C04314
:1002E000C00706D020688068C043C007F0D0002057
:1002F00070BDA06A40F01000A062E06A40F001000A
:10030000E062012070BD10B50146406A826A12F0B9
:10031000500F05D0006A026BBDE810400846104738
:10032000816A41F40071816201688968C1F34241C8
:1003300007290CD1017B51B9816A21F48071816256
:10034000816AC90403D4816A41F00101816200F02D
:100350003DFB10BD10B5406A816A41F040018162E9
:10036000C16A41F00401C16200F08BFB10BD10B501
:10037000406A00F085FB10BDF8B5002604460096E3
:1003800000688168C943C9072DD0816841F0010127
:100390008160164816490068B0FBF1F000E0401E8D
:1003A00000900028FBD100F0DBFE054616E000BF00
:1003B00000F0D6FE401B022810D920688068C04398
:1003C000C0070BD0A06A40F01000A062E06A40F0C5
:1003D0000100E06284F824600120F8BD2068806894
:1003E000C043C007E4D10020F8BD0000CC000020CD
:1003F00040420F00FEE700002DE9F05FA648A24D45
:100400004FF03336A14F4FF0663ADFF884B2A14C7B
:10041000006803F093FC00222B4603F0E9F8B04695
:100420003246B9463B4603F095FA06460F46E06B66
:1004300003F084FC52465B4603F08CFA32463B469E
:1004400003F026F802F0F2FFE063A16B03F050FF27
:1004500001462063606803F04DFE616B03F09AFC77
:1004600006466063E06803F0E5FD314603F00EFEEA
:10047000E06808D3404203F0DDFD616B03F006FF46
:1004800004D2E068404203F0D5FD6063206B616CEC
:10049000074603F02DFFA16803F02CFE06463946FF
:1004A000206803F027FE616B03F074FC314603F013
:1004B00071FC06462064E06803F0BCFD314603F0A1
:1004C000E5FDE06808D3404203F0B4FD216C03F081
:1004D000DDFE04D2E068404203F0ACFD2064206BF6
:1004E00060646E48006803F029FC0022664B03F04C
:1004F0007FF842464B4603F02DFA05460E46206D26
:1005000003F01CFC52465F465B4603F023FA2A4682
:10051000334602F0BDFF02F089FF2065E16C03F075
:10052000E7FE01462063606903F0E4FDA16C03F07F
:1005300031FC0546A064E06903F07CFD294603F028
:10054000A5FDE06908D3404203F074FDA16C03F0FF
:100550009DFE04D2E069404203F06CFDA064206B74
:10056000A16D064603F0C4FEA16903F0C3FD054674
:100570003146206903F0BEFDA16C03F00BFC294657
:1005800003F008FC05466065E06903F053FD294669
:1005900003F07CFDE06908D3404203F04BFD616D40
:1005A00003F074FE04D2E069404203F043FD60654D
:1005B000206BA0653A48006803F0C0FB0022324B74
:1005C00003F016F842464B4603F0C4F905460E46C2
:1005D000606E03F0B3FB52463B4603F0BBF92A467C
:1005E000334602F055FF02F021FF6066216E03F0F2
:1005F0007FFE01462063606A03F07CFDE16D03F03D
:10060000C9FB0546E065E06A03F014FD294603F0E6
:100610003DFDE06A08D3404203F00CFDE16D03F0BC
:1006200035FE04D2E06A404203F004FDE065206B31
:10063000E16E064603F05CFEA16A03F05BFD054631
:100640003146206A03F056FDE16D03F0A3FB294615
:1006500003F0A0FB0546A066E06A03F0EBFC294628
:1006600003F014FDE06A08D3404203F0E3FCA16EFE
:1006700003F00CFE04D2E06A404203F0DBFCA0660B
:10068000206BE066BDE8F09F006050403333D33FFD
:100690006666E63F44000020240000202800002079
:1006A0002C0000202DE9F04F85B0384C00250DF1CD
:1006B0000C0B6FF00D0A00BF4FF47A700621CDF8D5
:1006C00000B0CDE9011001233B22D021304800F0D9
:1006D00011FEBDF80C0040BA00B22080BDF80E102B
:1006E00049BA09B261808846BDF8101049BA09B20A
:1006F000A180894603F003F9524603F0A0FE0646A6
:100700000F46A06903F01AFB32463B4602F0C0FEDA
:1007100002F08CFEA061404603F0F1F8524603F06F
:100720008EFE06460F46E06903F008FB32463B4664
:1007300002F0AEFE02F07AFEE061484603F0DFF818
:10074000524603F07CFE06460F46206A03F0F6FA96
:1007500032463B4602F09CFE02F068FE6D1C2062B1
:10076000C82DA9DB0B4DA069294603F081FBA061D0
:100770002946E06903F07CFBE0612946206A03F02A
:1007800077FB206205B0BDE8F08F0000000000207C
:1007900044010020000048432DE9F04F85B0394C5A
:1007A000DFF8E4A000250DF10C0B00BF4FF47A70C8
:1007B0000621CDF800B0CDE9011001234322D0215C
:1007C000324800F097FDBDF80C0040BA00B2E0805E
:1007D000BDF80E1049BA09B221818846BDF8101043
:1007E00049BA09B26181894603F089F8002253466B
:1007F00002F0FEFE06460F46206B03F09FFA3246DB
:100800003B4602F045FE02F011FE2063404603F035
:1008100076F80022534602F0EBFE06460F46606B68
:1008200003F08CFA32463B4602F032FE02F0FEFD47
:100830006063484603F063F80022534602F0D8FE96
:1008400006460F46A06B03F079FA32463B4602F0AB
:100850001FFE02F0EBFD6D1CA063C82DA6DB0C4D46
:10086000206B294603F004FB20632946606B03F0EC
:10087000FFFA60632946A06B03F0FAFAA06305B0A3
:10088000BDE8F08F000000200060604044010020BF
:1008900000004843014800F051BA00000001002068
:1008A00030B590F840500124AC40C56B6C600468D2
:1008B00063604368102B036803D099600068C260CE
:1008C00030BD9A600068C16030BD704772B6FEE707
:1008D000F8B50024009490F824202546012A12D06F
:1008E000012280F824204A681F23072A0DD20668B7
:1008F000776B521E02EB820293409F430B6893403A
:100900001F43776319E00220F8BD06680D2A0AD25A
:10091000376BD21F02EB820293409F430B689340D8
:100920001F43376309E0F76A0D3A02EB82029340F6
:100930009F430B6893401F43F7620A6807230668CA
:100940000A2A0AD3F7680A3A02EB420293409F430D
:100950008B6893401F43F76008E0376902EB42025F
:1009600093409F438B6893401F4337610A68102A66
:1009700001D0112A20D1124B02689A4217D19368F4
:100980001B0219D4936843F400039360096810298B
:1009900012D10C490C4A0968B1FBF2F101EB81015B
:1009A000490000E0491E00910029FBD104E0816A62
:1009B00041F020018162012480F824502046F8BDD6
:1009C00000240140CC00002040420F002DE9F843F4
:1009D0004FF4FA60254C4310009040F6FF7200215E
:1009E000208802F0C7FC606003F024FB2049054624
:1009F00009680F4603F07CFC1E49044609688846D6
:100A000003F0C8F91C4909680E4603F071FC03F0B5
:100A1000F1FA1A4908602846394603F0BBF9054641
:100A2000414603F0B7F9314603F0B4F903F0E2FAB6
:100A30001249091D08602846414603F059FC314619
:100A400003F056FC03F0D6FA0C4908310860204642
:100A5000414603F04DFC314603F09CF903F0CAFA1D
:100A600006490C310860BDE8F8830000B40000209E
:100A70009800002084000020AC000020342C0140AD
:100A8000704770472DE9F0414FF0000704003D46E4
:100A90007ED0A06A002628B9E66284F82460204649
:100AA00000F07EF82046FFF703FCA16AC90600D4D7
:100AB00020B1A06A40F01000A06269E0A16A21F4B0
:100AC000885141F00201A1626268E169237B0A4317
:100AD00047EA43010A43A1684FF48077B94209D03D
:100AE000012907D05FF0000194F814C0BCF1010F98
:100AF00002D00AE03946F7E7F3B1A36A43F02003D6
:100B0000A362E36A43F00103E3622368D3F804C0FD
:100B10002CF4694C4CEA010CC3F804C021688B68C2
:100B2000DFF870C003EA0C0313438B60A168B9427D
:100B30000BD0012909D00CE0DFF85CC0A3690CEBF5
:100B400043330B4343F40061DFE7218A0D05A5F52C
:100B500080152168CB6A23F470032B43CB62216894
:100B600089680E4B1940914208D1E662A16A21F0D2
:100B7000020141F00101A162BDE8F081A06A20F00C
:100B8000020040F01000A062E06A40F00100E06264
:100B90000120F1E7FDF7E1FF00E0FFFFFE0E1FFF80
:100BA00070B586B00025064600950195029503951F
:100BB00000681A4988422ED11949886940F40070AA
:100BC0008861886900F400700490886940F004002E
:100BD00088618869694600F0040004900120009053
:100BE000032001900F4800F0CBF9104C0E48C4E9E7
:100BF00000058020C4E9025040002061800060614F
:100C00002020C4E90605204600F042F908B1FFF7AC
:100C10005DFE3462666206B070BD000000240140D3
:100C200000100240000801400800024000010020BE
:100C30002DE9F047894604463B4900683B4F0E1DAD
:100C40009046884201D0B84207D1306810F4702F26
:100C500003D001252846BDE8F08794F82400012838
:100C60000CD0012084F824002046FFF785FB050006
:100C70004FF0000004D084F82400EBE70220EAE7FC
:100C8000A16A40F60162914341F48071A16221683A
:100C9000B94218D1326812F4702F14D0A16A41F40D
:100CA0008011A1623168490505D5A16A21F400517E
:100CB00041F48051A162A16AC9040AD5E16A21F018
:100CC0000601E16206E0A26A22F48012A26249688B
:100CD000E9E7E06284F82400216A15488862216A05
:100CE0001448C862216A1448086321686FF0020042
:100CF00008602068816841F4807181602168434602
:100D00004A464C31206A00F0F1F820688168C1F34E
:100D100042410729816803D041F48011816099E73D
:100D200041F4A001FAE7000000240140002801403E
:100D3000070300086F030008550300082DE9F05F62
:100D4000C16B0C6801680B68D0F840C0042202FA3D
:100D50000CF2494DDFF824A1494E4A4FDFF828B183
:100D6000DFF828E122422CD05A072AD50A689206D9
:100D700003D40A6822F004020A600168A94201D182
:100D8000042219E0514501D1402215E0B14202D1BF
:100D90004FF4806210E0B94202D14FF480420BE080
:100DA000594502D14FF4802206E0714502D14FF43B
:100DB000800201E04FF080622F4908394A60C16A21
:100DC0003BE04FF0020808FA0CF818EA040F4FF065
:100DD00000094FF0010235D05FEA837832D50B6805
:100DE0009B0605D40B6823F00A030B6080F82120D2
:100DF0000168A94201D1022219E0514501D1202206
:100E000015E0B14202D14FF4007210E0B94202D1B4
:100E10004FF400520BE0594502D14FF4003206E086
:100E2000714502D14FF4001201E04FF000721249F7
:100E300008394A6080F82090816A00291AD0BDE8FC
:100E4000F05F0847082505FA0CF5254212D01B076C
:100E500010D50B6823F00E030B6090F84010C36BA5
:100E600002FA01F15960826380F8212080F8209015
:100E7000016BE2E7BDE8F09F080002401C00024061
:100E80003000024044000240580002406C00024022
:100E900030B528B308C8134914221944B1FBF2F144
:100EA0008900C16310498163022141771A6843F6C2
:100EB000F0718A43D0E900142143D0E902452C4364
:100EC0002143046921434469214384692143114337
:100ED000196000214163012242770177084630BD45
:100EE000012030BDF8FFFDBF0000024070B5044690
:100EF00090F82000002501280CD0012084F8200063
:100F000094F821600020012E06D084F820000225EC
:100F1000284670BD022070BD022684F82160A063BF
:100F20002068066826F0010606602046FFF7B8FC38
:100F3000E06A00282068016802D041F00E0106E056
:100F400021F0040101602068016841F00A0101609C
:100F50002068016841F001010160D9E770B50446DD
:100F600000F0FEF80546601C02D0044800780444F6
:100F700000F0F6F8401BA042FAD370BDC00000207C
:100F80002DE9F84FDFF8B8910024A9F1040B2346AE
:100F90000F2709F1040AABF1040EC9E00125A540B1
:100FA0002A40AA427DD1674ED1F804C0ACEB0608B6
:100FB000B44532D014DCBCF1030F3AD009DCBCF1EB
:100FC000000F2AD0BCF1010F1CD0BCF1020F31D1AF
:100FD0001DE0BCF1110F17D0BCF1120F2AD119E09E
:100FE000B8F5881F19D006DCB8F5803F15D0B8F5E4
:100FF000801F1FD111E0B8F5001F0ED0B8F5041FF7
:1010000018D10AE0CB6815E0CB681B1D12E0CB6855
:1010100008330FE0CB680C330CE08B682BB1012B4D
:101020004FF0080303D0456104E0042302E00561AA
:1010300000E00023FF2A01D8064601E000F1040683
:101040004FEA840501D9A5F12005D6F8008007FAFA
:1010500005FC28EA0C0803FA05F548EA0508C6F875
:1010600000804D68ED0062D5374DAE6946F001064F
:10107000AE61AD6924F0030605F001050095334D1E
:1010800006EB050CDCF80850A607360F07FA06F841
:1010900025EA0805DFF8B880404503D14FF0000885
:1010A00017E044E0DFF8AC80404502D14FF0010882
:1010B0000FE0DFF8A480404502D14FF0020808E0BD
:1010C000DFF89880404502D14FF0030801E04FF06F
:1010D000040808FA06F848EA0508CCF808804D68C4
:1010E000D9F80060ED024D4601D5164300E0964365
:1010F0002E604D68DAF80060AD02554601D5164302
:1011000000E096432E604D68DBF80060AD035D465D
:1011100001D5164300E096432E604D68DEF800606E
:10112000ED03754601D5164300E096432E60641C1E
:101130000D682A46E5407FF431AFBDE8F88F000026
:10114000080401400000111000100240000001409E
:1011500000080140000C0140001001400014014053
:101160000148806870470000C000002070B504008E
:1011700025D094F83D00002520B984F83C50204645
:1011800000F078FA242084F83D002068016821F0FE
:10119000010101602068016841F40041016020689C
:1011A000016821F40041016000F038FC4D4A61689B
:1011B000914201D84C4900E04C49884201D20120BB
:1011C00070BD4B492368B0FBF1F15E6826F03F0625
:1011D0000E435E606368934206D94FF49673594399
:1011E0004FF47A73B1FBF3F12368491C1E6A26F0B1
:1011F0003F06314319626168914210D84900401E90
:10120000B0FBF1F2521CC2F30B02042A01D20420FB
:1012100022E0B0FBF1F0401CC0F30B001CE0A26820
:10122000F2B301EBC10303EB0116431EB3FBF6F36C
:101230005B1C43F480431B0549D092B301EBC10210
:1012400002EB0111401EB0FBF1F0401CC0F30B009B
:1012500040F4804040F400402168CA694CF6FF73B6
:101260009A431043C861D4E907100143206802681B
:1012700022F0C00211430160D4E903010143206858
:10128000826848F2FF339A4311438160D4E9050133
:1012900008432168CA6822F0FF021043C86001E0D9
:1012A0000EE016E02068016841F00101016025644C
:1012B000202084F83D00256384F83E50002070BD56
:1012C00001EB4106431EB3FBF6F35B1CB3E70120C1
:1012D000C2E701EB4101401EB0FBF1F0401CC0F33E
:1012E0000B00B7E7A086010080841E0000093D00C6
:1012F00040420F002DE9FF4F83B00025DDE9107952
:101300009A4693460446DDF848800095FFF728FF8B
:10131000064694F83D0020287CD1192301228549F6
:101320002046009600F0E4FF0028F5D194F83C0038
:1013300001286FD0012084F83C0020680168C907AB
:1013400003D1016841F0010101602068016821F4C6
:1013500000610160222084F83D00402084F83E00B6
:1013600025646762A4F82A90608D20857248E06247
:10137000CDE9008653465A462046049900F0BAFE4D
:1013800000287DD1208DDFF8B491202768B1012895
:1013900014D00228206801681ED041F480610160E9
:1013A0002068416980690090B6E0206841698169E0
:1013B0000091016841F400710160ADE020680168AE
:1013C00021F48061016072B62068416981690091F1
:1013D000016841F400710AE041F40061016072B6F5
:1013E0002068416981690091016821F48061016090
:1013F00062B691E0032868D801280CD00228434641
:101400004FF000024946204600960FD000F070FFD2
:10141000B0BB10E08BE032464146204601F00EF8AA
:1014200070BB20680069616A08706CE000F060FFC2
:1014300030BB72B634E02068016821F4806101603D
:1014400072B620680069616A0870606A401C606258
:10145000208D401E2085608D401E6085384846F2F4
:10146000A8110068B0FBF1F0C0EBC00000EB8000F9
:101470000090401E009008D020684069C04300E002
:1014800029E040070CD50098F3E744F8305F677314
:10149000A573206940F02000206162B625731AE030
:1014A0002068016841F40071016020680069616A88
:1014B0000870606A401C6062218D491E2185618D23
:1014C000491E618562B621681BE0324641462046CE
:1014D00000F0B4FF18B1012007B0BDE8F08F20681C
:1014E0000069616A0870606A401C6062218D491E53
:1014F0002185618D491E618521684A69D243520761
:101500000AD409690170606A401C6062208D401E27
:101510002085608D401E6085208D00287FF46AAF95
:1015200084F83D7084F83E5084F83C50D4E70220A3
:10153000D2E70000020010000000FFFF04000100DD
:10154000CC0000202DE9FF4F83B09A46DDE91197CA
:1015500093460446DDF84080FFF702FE054694F806
:101560003D0020287FD119230122404920460095C3
:1015700000F0BEFE002876D194F83C00012872D01D
:10158000012084F83C0020680168C90703D1016884
:1015900041F0010101602068016821F400610160EF
:1015A000212084F83D00402084F83E000026266477
:1015B000C4F82480A4F82A90608D20852C48E0622D
:1015C000CDE9007553465A462046049900F010FEB6
:1015D00070B930E02A463946204600F067FF58B11E
:1015E000206C042804D12068016841F40071016076
:1015F000012007B0BDE8F08F606A216800780861BB
:10160000606A401C6062218D491E89B22185628D0D
:10161000521E628522685369DB435B070BD469B1B4
:1016200000781061606A401C6062208D401E208539
:10163000608D401E6085208D0028CBD12A4639461A
:10164000204600F029FE0028CAD154F83D0B01685D
:1016500041F400710160202004F81E09E6776677E6
:101660000020C6E7FFE70220C3E7000002001000E9
:101670000000FFFF10B586B000210091019102919A
:1016800003910068104988421BD1104CA06940F0BA
:101690000800A061A069694600F0080004904FF4BA
:1016A0004060009012200190032003900848FFF74B
:1016B00067FCE06940F48000E061E06900F48000CC
:1016C000049006B010BD0000005800400010024019
:1016D000000C014002488168027811448160704723
:1016E000C0000020074810B5016841F010010160FA
:1016F000032000F075F80F2000F006F800F024F841
:10170000002010BD0020024070B50D4D04464FF47E
:101710007A712878B1FBF0F00A490968B1FBF0F062
:1017200000F042FB48B9102C07D200222146501E7F
:1017300000F036F800206C6070BD012070BD000024
:10174000C0000020CC0000200C4808B5816941F0A1
:1017500001018161816901F001010091C16941F0DC
:101760008051C161C06900F0805000900448416818
:1017700021F0E06141F00071416008BD00100240BD
:1017800000000140002809DB00F01F020121914008
:101790004009800000F1E020C0F80011704700000F
:1017A000F0B40E4B1B680C46C3F30223C3F10705CC
:1017B000042D00D90425191D072901D2002300E0BA
:1017C000DB1E012606FA05F1491E214099409E4084
:1017D000761E16403143F0BC01F02FBA0CED00E04C
:1017E000064900F0070208684FF6FF03184040EA78
:1017F0000220034A10430860704700000CED00E02F
:101800000000FA052DE9F84305460078354CC0077D
:1018100054D0E0690026C00008D4E06940F0805050
:10182000E061E069012600F0805000902E480168D8
:10183000C90512D40168804641F480710160FFF748
:101840008FFC074605E000BFFFF78AFCC01B642839
:1018500023D8D8F80000C005F6D5206A10F44070EF
:1018600021D0A98801F4407181421CD0206A1F490F
:10187000012220F440700A6000220A602062C00742
:1018800011D0FFF76DFC074641F2883808E000BF31
:10189000FFF766FCC11B414502D90320BDE8F88370
:1018A000206A8007F4D5206A696820F440700843F4
:1018B00020621EB1E06920F08050E0612878800746
:1018C00005D56068A96820F4404008436060287826
:1018D000C00605D56068E96820F4800008436060B0
:1018E0000020DBE70010024000700040400442424C
:1018F0002DE9F0470F46050061D0434E306800F0F7
:101900000700B84209D2306820F007003843306041
:10191000306800F00700B84251D128683B4C81077D
:1019200012D5400703D5606840F4E0606060287815
:10193000000703D5606840F4605060606068A96883
:1019400020F0F000084360602878C00728D068685D
:10195000012810D02168022810D0890700292EDA2A
:10196000616821F0030101436160FFF7F9FB8046E4
:1019700041F288390DE021688903EFE78901EDE73D
:10198000FFF7EEFBA0EB0801494502D90320BDE8B3
:10199000F0876068696800F00C00B0EB810FEFD150
:1019A000306800F00700B8420BD9306820F007001B
:1019B00038433060306800F00700B84201D00120A1
:1019C000E5E72878400705D56068E96820F4E0601D
:1019D000084360602878000706D56068296920F40C
:1019E000605040EAC100606000F028F86168084A71
:1019F000C1F30311515CC8400649086006480068FD
:101A0000FFF782FE0020C2E70020024000100240E3
:101A1000DC440008CC000020C40000200448054934
:101A200000684968044AC1F30221515CC84070470C
:101A3000CC00002000100240EC4400080E4A51681F
:101A40000E4801F00C03042B11D0082B0FD10C48C9
:101A5000C1F38343C903C05C0AD55168084AC1F386
:101A60004041921E515C054A5043B0FBF1F0704773
:101A700004494843704700000010024000127A00F9
:101A8000CC44000800093D002DE9F84F040070D057
:101A90002078C04DC00749D06868C0F38100012894
:101AA00007D06868C0F38100022809D16868C003C4
:101AB00006D52868800339D560680028E7D035E06E
:101AC0006068B0F5803F0BD010B1B0F5A02F11D0F9
:101AD000286820F480302860286820F4802002E004
:101AE000286840F480302860606890B1FFF738FBC8
:101AF00006460AE0286840F480202860F0E700BF2E
:101B0000FFF72EFB801B642873D828688003F7D565
:101B10000CE0FFF725FB064605E000BFFFF720FBC2
:101B2000801B6428F0D828688003F7D420789A4E68
:101B300080074FF001094FF0000839D5686810F0B0
:101B40000C0F07D06868C0F38100022809D16868CB
:101B5000C00306D42868800714D52069012808D15D
:101B600010E02069B0B1C6F80090FFF7F9FA074617
:101B700005E00AE1FFF7F4FAC01B0228C4D8286880
:101B80008007F7D52868616920F0F80040EAC100B5
:101B900028600DE0C6F80080FFF7E2FA074604E08F
:101BA000FFF7DEFAC01B022823D828688007F7D485
:101BB000207800072CD57948A169D9B1C0F80090E8
:101BC000FFF7CEFA074604E0FFF7CAFAC01B022867
:101BD0000FD8686A8007F7D571484FF4FA5100684A
:101BE000B0FBF1F0009000BF0098411E0091FAD2C6
:101BF0000EE080E0C0F80080FFF7B2FA074604E08C
:101C0000FFF7AEFAC01B022875D8686A8007F7D4C0
:101C10002078400760D5E8690027C00008D4E8694B
:101C200040F08050E861E869012700F080500090A2
:101C30005C480168C90513D40168834641F480718A
:101C40000160FFF78DFA824606E000BFFFF788FAD1
:101C5000A0EB0A0064284ED8DBF80000C005F5D5DB
:101C6000E06801280AD008B1052813D0286A20F0BE
:101C700001002862286A20F0040002E0286A40F08F
:101C800001002862E06841F2883B98B1FFF768FAEA
:101C900082460BE0286A40F004002862EEE700BFAD
:101CA000FFF75EFAA0EB0A0159455AD8286A800767
:101CB000F6D50CE0FFF754FA824605E0FFF750FA3C
:101CC000A0EB0A0159454CD8286A8007F6D41FB109
:101CD000E86920F08050E861E06988B36968C1F381
:101CE0008101022944D00228C6F8608004D0FFF7A1
:101CF00037FA044638E034E0FFF732FA074604E0EA
:101D0000FFF72EFAC01B02282BD828688001F7D4D1
:101D1000206AB0F5803F05D16868A16820F40030E2
:101D200008436860D4E908010843696821F4741124
:101D300008436860C6F86090FFF712FA044606E0B0
:101D400025E000BFFFF70CFA001B022809D828681D
:101D50008001F7D51BE000BFFFF702FA001B022845
:101D600002D90320BDE8F88F28688001F4D40EE082
:101D70000128F7D06868226A00F48031914204D1CA
:101D8000616A00F47010884201D00120EAE7002067
:101D9000E8E7000000100240000042428004424296
:101DA000CC0000200070004010B5401EB0F1807FD4
:101DB00001D3012010BD4FF0E02460610F216017B6
:101DC00000F03BFF0020A06107202061002010BD33
:101DD00010B590F83C20012A22D0012280F83C2046
:101DE000CA688C6822F4407222434C6822F48062F4
:101DF00022430C6822F4006222430C6922F48052D0
:101E000022434C6922F400522243C969002322F480
:101E100080420A4301684A6480F83C30002010BDCB
:101E2000022010BD70B590F83C20012A26D0012474
:101E300080F83C40022280F83D2003685A689D6883
:101E400022F070060A6832435A600D4B02689A42CB
:101E500008D0B2F1804F05D00A4B9A4202D00A4B0B
:101E60009A4204D1496825F080031943916080F8B3
:101E70003D40002180F83C10084670BD022070BD36
:101E8000002C0140000400400008004000B585B06F
:101E90000021009101910291039100680B49884251
:101EA00012D10B48816941F0040181618069694662
:101EB00000F0040004904FF4706000900220019044
:101EC00003900448FFF75CF805B000BD002C01400A
:101ED000001002400008014070B5044690F83C0034
:101EE00000260D4601280FD0012084F83C006AB17D
:101EF000042A1DD0082A2FD00C2A3FD0012600200A
:101F000084F83C00304670BD022070BD206800F0AF
:101F1000DDFD2068816941F00801816120688169E7
:101F200021F004018161206881692A69114311E06F
:101F3000206800F0F3FD2068816941F4006181614F
:101F40002068816921F480618161206881692A6942
:101F500041EA02218161D2E7206800F00BFE20688F
:101F6000C16941F00801C1612068C16921F0040123
:101F7000C1612068C1692A69114311E0206800F03D
:101F800025FE2068C16941F40061C1612068C16912
:101F900021F48061C1612068C1692A6941EA022196
:101FA000C161ACE710B5040003D094F83D0010B156
:101FB00007E0012010BD002084F83C00204600F01E
:101FC0001FF8022084F83D00211D206800F03AFD32
:101FD000012084F8460084F83E0084F83F0084F82D
:101FE000400084F8410084F8420084F8430084F8FB
:101FF000440084F8450084F83D00002010BD000036
:1020000008B500680649884208D10648816941F44C
:1020100000618161806900F40060009008BD0000EB
:10202000002C01400010024010B50446022249B1C4
:1020300004290ED0082913D094F84100012816D0A5
:10204000012010BD94F83E000128F9D184F83E200B
:102050000FE094F83F000128F2D184F83F2008E017
:1020600094F840000128EBD184F8402001E084F886
:1020700041200122206800F01BFD0F4920688842A2
:1020800003D1426C42F4004242642068884208D086
:10209000B0F1804F05D00949884202D008498842F2
:1020A00004D1816801F00701062903D0016841F0DD
:1020B00001010160002010BD002C0140000400401F
:1020C00000080040FEE701684A69D24352050FD478
:1020D0006FF480624A61002140F8301F2022427371
:1020E0008173026942F004020261017301207047AA
:1020F000002070472DE9F84F0446006889460B9D83
:1021000001689846174641F48061016020680168C3
:1021100041F48071016000954FF0011B0022594687
:1021200020460A9B00F0E4F84FF4007A40B12068A2
:102130000068C00501D5C4F840A00320BDE8F88FB1
:10214000216809F0FE0008612B46284920460A9ABA
:1021500000F016F9F0BB20684169806900902A46BA
:1021600020460A9900F0A2F940B1206C04283AD127
:102170002068016841F40071016034E0FEB2B8F1FA
:10218000010F09D02168380A08612A4620460A99B9
:1021900000F08CF90028E8D1206806612A46204624
:1021A0000A9900F083F90028DFD12068016841F422
:1021B0008071016000950022594620460A9B00F07C
:1021C00097F80028B3D1216809F0FF0040F0010022
:1021D000086100E007E02B46044920460A9A00F017
:1021E000CFF80028AAD00120A8E7000002000100D3
:1021F0002DE9F843044600680D46DDE908970168BB
:102200009846164641F4807101604B4600224FF01B
:1022100001112046009700F06BF848B12068006873
:10222000C00502D54FF4007020640320BDE8F88398
:10223000216805F0FE0008613B464A4615492046E4
:1022400000F09EF888B920684169806900903A469C
:102250004946204600F02AF948B1206C042804D1F0
:102260002068016841F4007101600120DEE7F5B2E9
:10227000B8F1010F09D02168300A08613A46494691
:10228000204600F013F90028E7D1206805610020FE
:10229000CCE700000200010070B516460D4604466A
:1022A0001EE02046FFF70FFF08B1012070BD681C3B
:1022B00016D0FEF755FF801BA84200D885B92068CC
:1022C0004069C04340070BD5002044F8300F20215F
:1022D0006173A073216941F0200121612073E4E75B
:1022E00020684069C0434007DBD4002070BD000077
:1022F0002DE9F047984617460D460446C1F30746B8
:10230000DDF820902AE000BFB8F1FF3F26D0FEF7AD
:1023100027FFA0EB0901414502D8B8F1000F1DD1FC
:102320002068012E16D0806925EA00000004000C08
:1023300012D00020B84211D1002044F8300F2021E3
:102340006173A073216941F0200121612073012094
:10235000BDE8F0874069E7E70120EBE72068012E40
:102360000AD0806925EA00000004000C06D0002095
:10237000B842C9D00020EBE74069F3E70120F7E756
:102380002DE9F047984616460D4604464FF00009E1
:102390004FF0200AC1F3074723E020684069C0439B
:1023A000400515D42068016841F40071016021687E
:1023B0006FF480604861C4F8309084F83DA084F8E0
:1023C0003E90216C41F00401216484F83C9021E0AE
:1023D000701C06D0FEF7C4FEA0EB0800B04203D884
:1023E00016B1012F1FD021E02068012F15D0806980
:1023F00025EA00000004000C18D000BF44F8309F0C
:1024000084F80DA084F80E90216941F0200121612B
:1024100084F80C900120BDE8F087406925EA0000AF
:102420000004000CEAD12068406901E0206880695E
:1024300025EA00000004000CAFD1ECE72DE9F041E3
:10244000002590460E460446202728E04069C043F8
:10245000C0060CD454F8301B6FF01000486144F8EB
:1024600010596777A577206A2062257714E0FEF778
:1024700077FEA0EB0800B04200D886B9206840691A
:10248000C04340060BD544F8305F6773A5732069DD
:1024900040F02000206125730120BDE8F081206814
:1024A0004169C9434906D1D40020F6E770B5164604
:1024B0000D4604461EE02046FFF705FE08B1012048
:1024C00070BD681C16D0FEF74BFE801BA84200D8DA
:1024D00085B920684069C04300060BD5002044F848
:1024E000300F20216173A073216941F02001216127
:1024F0002073E4E720684069C0430006DBD4002075
:1025000070BD0000F0B585B0012504A8CDE9000537
:102510004FF47A742B467522D02102941B48FEF7A3
:10252000E9FE9DF8100068282ED1002703AE8DF833
:102530000C700096CDE9015401236B22D021134881
:10254000FFF700F807208DF80C000096CDE9015444
:1025500001231922D0210D48FEF7F4FF8DF80C70ED
:102560000096CDE9015401231C22D0210748FEF733
:10257000E9FF8DF80C700096CDE9015401231B2270
:10258000D0210248FEF7DEFF05B0F0BD4401002077
:102590002DE9F04385B04FF47A72062103A88DE847
:1025A000070001233B22D0212748FEF7A3FEBDF8F8
:1025B0000C00264C40BA07B22780BDF80E0040BA86
:1025C00000B260808046BDF8100040BA00B2A08022
:1025D0008146A06901F0B2FB05460E46384601F07F
:1025E0008EF96FF00D073A4601F029FF2A4633466F
:1025F00001F0BAFA00F01AFFE060E06901F09EFB1A
:1026000005460E46404601F07AF93A4601F017FFBA
:102610002A46334601F0A8FA00F008FF2061206A3C
:1026200001F08CFB05460E46484601F068F93A4633
:1026300001F005FF2A46334601F096FA00F0F6FE57
:10264000606105B0BDE8F083440100200000002077
:102650002DE9F04F85B04FF47A72062103A88DE87A
:10266000070001234322D0215B48FEF743FEBDF85B
:102670000C005A4C40BA06B2E680BDF80E0040BAD3
:1026800000B220818146BDF8100040BA00B26081DE
:102690008246206B01F052FB07460D46304601F0A2
:1026A0002EF9DFF83CB100225B4600F0A1FF3A466C
:1026B0002B4601F059FA00F0B9FE80466062606B6B
:1026C00001F03CFB06460D46484601F018F9002291
:1026D0005B4600F08DFF32462B4601F045FA00F0D4
:1026E000A5FE0646A062A06B01F028FB07460D463A
:1026F000504601F004F900225B4600F079FF3A46AB
:102700002B4601F031FA00F091FEDFF8D8A0054623
:10271000E0625146404601F0ABFBE16B01F03AFB51
:10272000E0635146304601F0A3FB216C01F032FB1F
:1027300020645146284601F09BFB01F0FFFA2A4E27
:10274000DFF8A89032464B4601F004F9DFF8A0808C
:102750000022434600F04CFF00F018FE05460F46ED
:10276000206C01F0EBFA2A463B4601F0F3F80546EF
:102770000F46E06B01F0E2FA2A463B4601F0F4F91D
:1027800000F054FEE0635146E06A01F071FB01F095
:10279000D5FA32464B4601F0DDF80022434600F000
:1027A00027FF00F0F3FD06460D46E06B01F0C6FA88
:1027B00032462B4601F0CEF806460D46206C01F05D
:1027C000BDFA32462B4600F063FE00F02FFE206477
:1027D00005B0BDE8F08F000044010020000000209B
:1027E0000060604000007A43894160E5D0220940E2
:1027F000008066403EB50024114800940194029484
:102800000E498460016001250573047505614FF46C
:1028100060214460C161FEF735F908B1FEF756F852
:1028200007200094CDE9015069460548FEF750F8AD
:10283000002801D0FEF74AF83EBD00000024014008
:10284000D0000020094808B5416941F0010141610B
:102850004069002200F00100009011460B20FEF7B5
:102860009FFFBDE808400B20FEF78CBF0010024020
:102870000D4808B5816941F020018161816901F04D
:1028800020010091816941F004018161816901F0B9
:1028900004010091816941F008018161806900F0C3
:1028A0000800009008BD0000001002400D4810B55F
:1028B0000B4901600C49416000214FF48042816066
:1028C000C0E9031241618161C1610162FEF74EFC02
:1028D000002803D0BDE81040FDF7F8BF10BD000090
:1028E0000058004044010020A086010010B592B0BD
:1028F00000240F941C2168461094FDF765FC2021EC
:1029000007A8FDF761FC2C482A4901604721C0E96E
:10291000011444F61F61C0E9031444618461FFF7A8
:1029200041FB08B1FDF7D2FF0F940FA92248109484
:10293000FFF778FA08B1FDF7C9FF6020CDE9000480
:102940000294039404940594002269461A4806945C
:10295000FFF7C2FA08B1FDF7B9FF0422694616482D
:10296000FFF7BAFA08B1FDF7B1FF0822694612482D
:10297000FFF7B2FA08B1FDF7A9FF0C2269460E482D
:10298000FFF7AAFA08B1FDF7A1FF0794089409948C
:102990004FF400500A94CDE90B4007A906480E9465
:1029A000FFF716FA08B1FDF791FF0348FFF76EFA3B
:1029B00012B010BD002C014098010020FEE7FEE798
:1029C00070477047FEF786BE30B593B02821684641
:1029D000FDF7FAFB14210AA8FDF7F6FB00250120FC
:1029E0000F9510951195010412958DE82300049020
:1029F0004FF4E010CDE90810022407946846FFF771
:102A000043F808B172B6FEE70AA90F2081E8310049
:102A10004FF48060CDE90D0502210AA8FEF768FF9A
:102A200008B172B6FEE74FF4404011900F940FA822
:102A3000FEF7E8FE002801D072B6FEE713B030BD05
:102A400070470000F0B50268164B174C174D4FF059
:102A50008047984205D0B84203D0A04201D0A84296
:102A600003D122F070064A683243984205D0B8423A
:102A700003D0A04201D0A84203D122F44074CA6816
:102A800022434C6922F08002224302608A68C262BB
:102A90000A688262984201D109690163012141619A
:102AA000F0BD0000002C0140000400400008004080
:102AB00010B501F01F030121046A99408C430462A0
:102AC000016A9A401143016210BD000030B5036AEB
:102AD000026A22F0010202624268846924F07305EE
:102AE0000C682C4323F002058B682B430A4DA84247
:102AF0000BD123F00805CB6822F440722B434D69BB
:102B000023F0040315438A692A43426084614968BB
:102B10004163036230BD0000002C014030B5026A01
:102B2000036A23F010030362436884690D6824F488
:102B3000E64444EA05248D6822F0200242EA0512A8
:102B40000B4DA8420ED1CD6822F0800242EA051258
:102B50004D6923F4406343EA85038D6922F0400206
:102B600043EA85034360846149688163026230BD42
:102B7000002C014030B5036A026A22F480720262BE
:102B80004268C46923F4007324F073050C682C4375
:102B90008D6843EA05230C4DA8420ED1CD6823F47D
:102BA000006343EA05234D6922F4405242EA0512CC
:102BB0008D6923F4806342EA05124260C46149686A
:102BC000C163036230BD0000002C014030B5046ACF
:102BD000026A22F4805202624268C3690D6823F4DB
:102BE000E64343EA05238D6824F4005444EA05349F
:102BF000064DA84204D14D6922F4804242EA851272
:102C00004260C36149680164046230BD002C014028
:102C1000FEE7490050EAC12018BF04204A0D18BF42
:102C200040F0010040F2FF72B2EB515F08BF40F08C
:102C30000200012808BF052070470907090E002877
:102C400004DB00F1E02080F80014704700F00F0072
:102C500000F1E02080F8141D704700002DE9F74FC7
:102C6000144694B00021C4E902111599079121F08E
:102C70000045C9498D4206DC1599C4E9000117B029
:102C80000020BDE8F08FC549DFF814A3A9423CDD60
:102C90000799C44E0029C44FC44A1599534619DDFB
:102CA00000F062FF554506D0C14AC24B00F05CFF00
:102CB000C4E900010AE04FF0D352BE4B00F054FFCC
:102CC00032463B4600F050FFC4E9000117B0012036
:102CD000BDE8F08F00F0DCFB554506D0B44AB54B9B
:102CE00000F0D6FBC4E900010AE04FF0D352B14B2B
:102CF00000F0CEFB32463B4600F0CAFBC4E90001BF
:102D000017B04FF0FF30BDE8F08FAB49A9421599DD
:102D100078DB21F0004183468846A84AA84B00F0A2
:102D200019FE0022A74B00F0B3FB00F0B9FD09909B
:102D300000F0E5FD06460F469C4A534600F00AFEA9
:102D400043465A4600F004FF80468A46984A994B0B
:102D50003046394600F0FEFD2A0D01250B92424611
:102D6000534600F0F5FE032DC4E9000139D00B985D
:102D7000C1F30A51401A05EB45111139814230DA8D
:102D80009148C346784400EB0510CDF80CA00C9098
:102D9000D0E900233046394600F0DCFD02460B4600
:102DA000049106905846039900F0DEFE80468A465C
:102DB00002460B465846039900F0D6FE049B069A3D
:102DC00000F0D2FE83460C9803913946D0E90223E5
:102DD000304600F0BFFD5A46039B00F0C5FE6D1C57
:102DE000BDE707980028A2BF099817B0BDE8F08F8B
:102DF000616881F000416160099817B04042BDE808
:102E0000F08FFFE784461598C1F31301C0F30A5011
:102E1000A0F2F5304FEA601800F01F06C6F120005E
:102E2000139000200690079041F4801E05206D4607
:102E300076B1664A08EB00017A4452F8213002EB81
:102E40008101B3404A68139922FA01F1194305E060
:102E50005F4908EB0002794451F82210A1FB0E27CC
:102E6000A1FB0C131A449A4234BF0123002303EB45
:102E7000070A05EB8003D3E901B70F448F4234BF43
:102E80000121002193448B4411B1934502D903E001
:102E9000934501D2012100E00021C3E901B751446B
:102EA00045F82010011EA0F10100C1DC0298059F29
:102EB00000F10050800F12900298DDE90356800067
:102EC00000F01DFD834628460D9100F02FFD6FF0A8
:102ED0001D0201F0B4FACDE90E01304600F026FDE6
:102EE0006FF03D0201F0ABFA80468A46384600F0AA
:102EF0001DFD6FF05D0201F0A2FA074642465346FF
:102F0000119100F0C5FADDE90E2300F0C1FA5A462E
:102F10000D9B00F0BDFA00250E465A4628460D9B33
:102F200000F022FEDDE90E2300F01EFE424653466D
:102F300000F01AFE3A46119B00F00AFEDFF898A056
:102F4000244A534600F006FD07468846234A244B90
:102F50003146284600F0FEFC3A46434600F098FA17
:102F6000074688464FF0A84253463146284600F0AF
:102F7000F1FC3A46434600F08BFA159A12F0004FE6
:102F800004D0129A81F0004152421292C4E9000129
:102F9000129817B0BDE8F08FFB21E93F7CD90240C1
:102FA000FB21F93F7370032E8A19A33B00004054A4
:102FB0003163621A61B4D03DFB21394183C8C96DC8
:102FC000305FE43F0000E03FA01700001C17000046
:102FD000FE160000182D4454FB21F93D3326A6119E
:102FE000460B113C2DE9FF4D21F0004807460C46E9
:102FF000B8F1795F08DA00F053FC002801BF002027
:10300000324904B0BDE8F08D3A46234610461946D1
:1030100000F0A0FC054602462D480E460B46062150
:10302000784400F05DF82A46334600F093FCDDE971
:10303000022382468B463846214600F08BFC04462C
:103040000F4652465B462846314600F083FC224636
:103050003B4600F089FD07468A464FF0FF3228467E
:10306000314601F0ECF91B4A90450ADA3A465346DC
:1030700000F07AFD04B00022BDE8F04D134B00F0E3
:1030800067BD154A4245A8BFA8F500154FF00004DA
:10309000B8BF124D22462B4600F066FD0646884614
:1030A00022462B460020094900F05EFD04460D46ED
:1030B0003A4653463046414600F056FD04B022469B
:1030C0002B46BDE8F04D00F043BD00000000F03F8E
:1030D000D41400003333D33F0000E93F0000D23F57
:1030E0002DE9F0414F1E00EBC7010446D1E9000174
:1030F00015461E4637F006020DD02A46334600F02C
:1031000029FC7F1E04EBC703D3E9002300F0C0F9BC
:1031100037F00602F1D1022F25D0042F13D0062F4D
:1031200018BFBDE8F0812A46334600F013FCD4E90D
:103130000A2300F0ADF92A46334600F00BFCD4E92F
:10314000082300F0A5F92A46334600F003FCD4E931
:10315000062300F09DF92A46334600F0FBFBD4E934
:10316000042300F095F92A46334600F0F3FBD4E936
:10317000022300F08DF92A46334600F0EBFBD4E938
:103180000023BDE8F04100F083B900002DE9FF4DB8
:10319000054621F0004084B00C46B0F1795F0BDAAF
:1031A0002846FFF736FD042808BF00F06FF82846D0
:1031B00008B02146BDE8F08D2A460B46104600F0C7
:1031C000C9FB06460F462A46234600F0C3FB80464D
:1031D00026488A4632463B4605217844FFF780FF61
:1031E00083461098029160B3214A224B40465146D3
:1031F00000F0B0FBCDE900015A4640465146029B23
:1032000000F0A8FB82468846DDE906014FF0FF3258
:1032100001F015F95246434600F0A6FC32463B4603
:1032200000F098FBDDE9062300F09EFCDDE90023B9
:1032300000F09AFC08B02A462346BDE8F04D00F0A5
:1032400087BC0B465A463046394600F083FB084A95
:10325000084B00F01DF94246534600F07BFB08B0D6
:103260002A462346BDE8F04D00F012B912140000C2
:10327000495555555555C5BF012201F0E0B800220A
:1032800013461046114600F0B3B90000024A002070
:10329000110701F0D4B8000001FDFFFFFEF722FA8C
:1032A000FFF792FBFFF7E4FAFFF7CCFAFFF7FEFA1D
:1032B000FFF7A0FAFFF71AFBFFF724F9294D4FF4A7
:1032C0007A742C6000212848FEF7AEFE2E1D346073
:1032D00004212548FEF7A8FE371D3C60082122483E
:1032E000FEF7A2FE07F10408C8F800400C211E48B2
:1032F000FEF79AFE6000286030603860C8F8000071
:10330000FDF72CFE2C6034603C60C8F8004020467D
:10331000FDF724FE0020286030603860C8F8000007
:10332000012212491248FDF783FCFDF735FAFDF73B
:10333000B9F94FF081450D4CFFF72AF9FFF788F9ED
:10334000FDF70EFF00F08EFEA16800F0D1FFA8424D
:10335000F6DBFDF705FF00F085FEA060FDF74CF8F9
:10336000EAE70000342C014098010020B40000205E
:10337000D000002010B5401A029C511AE41A641CB7
:103380006043491C90FBF1F0184410BD00B5254B7B
:1033900021F0004287B09A4203DC002213460092DB
:1033A0002BE0214B9A4208D140B94FF00100FCF7C5
:1033B0003AFFFFF764FF07B000BD03DBFFF75CFFD8
:1033C00007B000BD02AAFFF749FC10F003014FF05F
:1033D00001000DD0012914D002291AD00DF1080CDA
:1033E0009CE80F00FFF7FEFD07B081F0004100BD33
:1033F0000DF1080C00909CE80F00FFF7C7FE07B026
:1034000000BD0DF1080C9CE80F00FFF7EBFD07B0C5
:1034100000BD0DF1080C00909CE80F00FFF7B6FE10
:10342000E2E70000FB21E93F0000F07F21F00042CD
:10343000A2F16052B2F5801F01F0004328BFD2F123
:103440007F6C0BD95FEA001C43EAC20242EB50706A
:1034500018BF704728BF20F001007047B2F5801FE9
:10346000BCBF184670474FEA410C1CF5001F02D242
:10347000084600F006BF70B500F016FB000000899A
:10348000FFF7F6BF4FF00040A0F580007047000046
:1034900010B591EA030F48BF83F0004300F16C833D
:1034A000841A71EB030C05D2121943EB0C03001BB9
:1034B00061EB0C01DFF824E14FEA1154A4EB135C3B
:1034C0001EEA430F18BF9EEA445F73D023EA0E033F
:1034D000DCF1200E21EA045143F4801332D322FAA6
:1034E0000CFE10EB0E0023FA0CFE41EB0E01CCF1AA
:1034F000200E03FA0EFE10EB0E0051F10001B1F5A3
:10350000801FCCF1200E32D201EB045112FA0EF2E0
:10351000BDE8104058BF7047401C38BF5FEA420208
:1035200018BF7047002814BF20F0010041F10001CE
:103530004FEA410313F5001F38BF7047A1F1C041A6
:1035400000F000BB012A43EB0302ACF1200CDCF1DC
:103550001F0E32BF4FF0000E23FA0CF310EB0300E6
:1035600041EB0451B4EB115FD0D0A1EB045101F554
:10357000801149085FEA300001EB04510ED350F18D
:10358000000038BF12FA0EFE08D1BDE81040C9E7AE
:10359000401C38BF5FEA4202CAD1C3E7BDE8104011
:1035A0004FEA410313F5001F38BF7047A1F1C04136
:1035B00000F0C8BA9EEA445F08D011EA5E0FBDE889
:1035C000104004BF01F0004100207047BDE81040EA
:1035D00070B500F069FA00BF64FBBE3E0000E0FF7A
:1035E00002494FF0000000F0F8BE00BF0000F87F75
:1035F0002DE9C04130B4DFF8A0C23CEA111418BF75
:103600003CEA131400F0EC8081EA03051CEA111473
:1036100044EAD57418BF1CEA131500F0C780A4EB68
:1036200005044FF0004545EAC12145EAC32341EABC
:10363000505143EA525304F17F74994204F5003427
:103640004FEAC0204FEAC22208BF904200F09C809F
:103650004FEA13650FF24016765D4FEA134506FBFD
:1036600005F7C7F1807706FB07F74FEAD737A7FBC7
:1036700003687642C8F58038A7FB06CE38BFA8F1AC
:10368000010807FB08E64FF0000EA6FB028CE6FBE4
:1036900003CEDCF1000CCEF1004E38BFAEF1010ECE
:1036A000A6FB0C584FF000074FF00005E6FB0E8715
:1036B000A1FB08C6A0FB07CE16EB0E0645F10005E0
:1036C000E1FB076515F1E04E7EBFA4F580345FEAAB
:1036D00046066D4116F1800745F100054FEA1727B0
:1036E0004FEA066647EA0567A6F1DE46B6F1805F57
:1036F0004FEA15251FD9384624F0010C05EBC4719B
:10370000BCF1FE6F01EB0C1102D8F0BCBDE80081EA
:1037100024425CBF01F5801E9EEAC47F02D4F0BC47
:10372000BDE80081244238D4F0BCA1F1C041BDE81D
:10373000004100F007BA4FEAD22242EA43524FEA70
:10374000D323A7FB02864FEAD02040EA415007FB73
:1037500003661EEA0E0F4FEAD12105FB026658BF31
:10376000A6EB0056B6EB00564FEA520E4EEAC37E69
:1037700018EB0E0E56EB530EBDD518EB02085E414A
:103780007F1C55F10005B6E74FF480154FF0000798
:103790004FF000064FF00008ADE7F0BC4FF000001E
:1037A00001F1C04101F00041BDE8008111EA0C1FA8
:1037B0000CEA131500D00CE013EA0C1F00F0258072
:1037C0004FF00000F0BC81EA030101F00041BDE8C8
:1037D0000081F0BCBDE8004181EA030100F0B2B90C
:1037E000F0BCBDE8004170B500F05EF9097EFC3E1A
:1037F00000F007B881EA03014FF0000001F000413A
:10380000704781EA030100F09DB9F0BCBDE80041BA
:103810004FF0000021497047FFFDFBF9F7F5F4F286
:10382000F0EEEDEBE9E8E6E4E3E1E0DEDDDBDAD85B
:10383000D7D5D4D3D1D0CFCDCCCBCAC8C7C6C5C4B9
:10384000C2C1C0BFBEBDBCBBBAB9B8B7B6B5B4B3D0
:10385000B2B1B0AFAEADACABAAA9A8A8A7A6A5A4BB
:10386000A3A3A2A1A09F9F9E9D9C9C9B9A9999987F
:103870009797969595949393929191908F8F8E8E22
:103880008D8C8C8B8B8A89898888878786858584AF
:1038900084838382828181800000FF070000F87F9B
:1038A0004FEA41034FEA5353A3F58063D3F11E035C
:1038B000C8BFD3F1210C0CDD4FF0004242EAC12217
:1038C00042EA505232FA03FC8CEAE17CACEBE17044
:1038D0007047102BC4BF0020704703F5787CBCF103
:1038E000FF3F04D06FF0004282EA2100704770B5BC
:1038F00000F0DAF84992248000207047F2E710F0D7
:10390000004248BF4042B0FA80F310FA03F10AD0F7
:10391000C3F11D0303F580634FEA415002EB0352EC
:1039200002EBD12170474FF000007047B0FA80F3EE
:1039300010FA03F10AD0C3F11D0303F580634FEAC7
:1039400041504FEA035202EBD12170474FF0000083
:1039500070470000DFF848C170B51CEA111E1EBF99
:103960001CEA13159EEA0C0F95EA0C0F00F06F800D
:1039700081EA030423EA4C134EEAD47E21EA4C1177
:1039800041F4801143F48013AE44A1FB024CA0FB30
:103990000365AEF17F7E361955EB0C05A1FB034C98
:1039A0004CF10003A0FB021C16EB0C06654153F121
:1039B0000003094218BF46F0010613F4007F0BD143
:1039C0004FEA03314FEA0530340341EA155140EA2A
:1039D00016506FF003020AE04FEAC3214FEAC520F8
:1039E000F40241EA555140EA56506FF0020202EBF0
:1039F0002E4201EB025585EACE710AD05FEA440CF3
:103A000018BF24F0004450F1000041F1000120EA09
:103A1000D47040F2FE7C624500D270BDA84214BF53
:103A20004FF080444FF04044002E08BF0024BEF108
:103A3000806FA8BFA1F1C041BDE8704080F28280D4
:103A40004FF0000001F1C04101F0004170479EEAD3
:103A50000C0F0CEA131518BF95EA0C0F06D04FF0A7
:103A6000000081EA030E0EF0004170BD00F01CF86A
:103A70008900013E00F007B800F009B84FEA430C96
:103A80005FEA5C5C08D081EA030100F05BB84FEAB2
:103A9000410C5FEA5C5CF6D14FF0000001497047D1
:103AA0000000FF070000F87F0EF1020E2EF0030E5B
:103AB0005EF8046B364205D4012A43EB030515F585
:103AC000001F12D8012841EB010C1CF5001F0CD877
:103AD0000ED14FEAD17C15F5001F0CEB4C0C0CF10C
:103AE000020C08BF4CEBD37C04E04FF0080C01E063
:103AF0004FEAD37C0CEB4C0526FA05F606F00706D8
:103B0000B6F1040C06D20EEB860CBDE870404CF00A
:103B1000010C6047DFE80CF0090B02024FF0004196
:103B20004FF00000A1F5002170BD19461046012894
:103B300051EB010418BFD4F5001484BF002001F03C
:103B4000004170BD0808A0F500114FEA310170472F
:103B500091EA030F10B581F000413FF5A1AC83F06D
:103B6000004300F009B8000010B591EA030F48BF08
:103B700083F000433FF594AC841A71EB030C07D239
:103B800012198CF0004C43EB0C03001B61EB0C0191
:103B9000DFF8A4E14FEA1154A4EB135C1EEA430FD3
:103BA00018BF9EEA445F00F0B08023EA6E035242E1
:103BB00021EA0451C3EB6E0338BF5B1EDCF1200E1B
:103BC00025D322FA0CFE10EB0E0043FA0CFE41EB5B
:103BD0000E01CCF1200E03FA0EFE10EB0E0051F197
:103BE0000001CCF1200E29D412FA0EF201EB04519F
:103BF000BDE8104058BF7047401C1CBFB2F1004FD9
:103C0000704700280CBF491C20F00100704712EBE0
:103C1000020E43EB030218BF4FF0010E4EEA4202C0
:103C2000ACF1200CDCF11E0E54D943FA0CFE10EB63
:103C30000E0051F1FF31CCF11E0ED5D50EF1010E63
:103C400012FA0EFE404141EB010101EB445C5FEAD8
:103C50005C5C10D910EBDE7001EB045138BFBEF193
:103C6000004FBDE8104018BF704700280CBF491C2A
:103C700020F00100704730D24FEAD42C11F500112A
:103C800024F400641BD0B1FA81F20B3AA41AA41EEA
:103C9000D2F12003914030FA03F31943904001EB35
:103CA000CC71002C01EB0451BDE81040A8BF704757
:103CB00001F1C0414FF0000001F000417047B0FA3F
:103CC00080F310FA03F100D110BDE41A173C480547
:103CD000C90AE4E701EB045110BD491001EB04519E
:103CE000BDE810404FEA300002E04FF0000170479D
:103CF0004A0008BF0042F8D0B2F5001F28BF704745
:103D000001F000414FF0000070479EEA445F07D089
:103D100011EA5E0FBDE8104004BF0021002070478B
:103D2000BDE8104070B5FFF7BFFE00BF40DFF63EB4
:103D300083F00041104670470000E0FF43004FEA67
:103D4000D30C4FEA3C0C43401FBF40070CF16051BD
:103D500013F0FE4F70471CF0006F03D100200CF0F1
:103D6000004170470CF0004343EA507010B540EA40
:103D7000CC0000F040FA00BF000000924FEA0001C2
:103D8000FFF7E0BE4FF000414FF00000A1F5002129
:103D90007047000090EA010F48BF81F0004100F138
:103DA000AE82421A3CBF801A89184FEAD0524FF0B7
:103DB0007F4C1CEA410FA2EBD15318BF9CEA026F63
:103DC00000F03B804FF0004C4CEA00204CEA01210F
:103DD00021FA03FC10EB0C0C1ED202F1FF325FEA59
:103DE0001C2040EBC25038BF70471CF07F0F4FEAD9
:103DF000400C18BFBCF17F4F38BF7047C3F12003A0
:103E0000994008BF20F00100BCF17F4F38BF7047D8
:103E1000A0F1C04000F035BA4FEA3C00000A40EB88
:103E2000C25028BF1CF0FF0F4FEA400CE6D018BF6D
:103E3000BCF17F4F38BF7047EAE79CEA026F05D0BC
:103E400010EA5C0F08BF00F00040704710B500F0AA
:103E5000D2F900BF64FBBE3E401058BFC0F14040E5
:103E6000491058BFC1F140418142EFF300807047D3
:103E70004FF47F0C1CEAD0121EBF1CEAD11392EA49
:103E80000C0F93EA0C0F00F0858090EA010F48BFF9
:103E900042F4807240F4000C41F400002CF07F41A9
:103EA00020F07F4000B58142A2EB03020FF2081C14
:103EB000ACEB504EC0F100009EF800E04FEA4E0E11
:103EC00000FB0EFC38BF49004FEA2C1C02F5FA0239
:103ED0000CFB0EF34FEACE1E4FEA112C4FEAC12124
:103EE0000EEB635E42EB22420EFB0CFC4FEA1C53CE
:103EF00000FB03114FEA112C4FEA01310EFB0CFCC1
:103F00004FEADC4C00FB0C11C14228BF09184CEBF6
:103F100003335DF804EB10EB410143EBC250B2F503
:103F20007C0F38BF704729D512F0F00F1CBF00F18D
:103F3000C04000F0004070470081828384858687FE
:103F400088898B8C8D8E8F919293959697999A9C58
:103F50009D9FA0A2A3A5A7A8AAACAEB0B2B3B5B7C7
:103F6000B9BCBEC0C2C5C7C9CCCED1D4D7D9DCDF9D
:103F7000E2E6E9ECF0F3F7FAFE0000004FEA400C4D
:103F80000CF1807CBCF17E4F28BF7047B0F1C0407F
:103F900000F077B990EA010F0CEAD11348BF42F460
:103FA0008072624538BF634507D213F47F0F16D085
:103FB00080EA010000F00040704710B500F01BF9E6
:103FC000097EFC3E00F005B880EA010000F00040E8
:103FD000704780EA010000F0004000F052B912F48E
:103FE0007F0F04BF0248704780EA010000F049B922
:103FF0000000C07FC10DD1F19E0206DB4FEA002315
:1040000043F0004323FA02F07047004207D54FEA1D
:104010004001B1F1FE4F02D24FF00000704710B5E1
:1040200000F0E9F849922480002070476FEA2000F0
:104030007047000010F0004148BF4042B0FA80F3E2
:1040400010FA03F2C3F19D030BD051EAC35101EB07
:104050001220530638BF704700F1010008BF20F05E
:1040600001007047B0FA80F310FA03F2C3F19D0328
:104070000AD0D90501EB1220530638BF704700F172
:10408000010008BF20F001007047000050EA010C59
:1040900000F113801CF5000F58BFBCF5000F01D4D0
:1040A0008842704707D710F5000F58BF11F5000F71
:1040B00015D488427047894270471CF5000F04D51B
:1040C000BCF5000FF7D5814270474FF0807C1CEBA8
:1040D000400F38BF1CEB410F01D28142704710B531
:1040E00000F089F8922449004FF000504FF08051C1
:1040F000FFF7B2BE4FF47F0C1CEAD0121EBF1CEAC1
:10410000D11392EA0C0F93EA0C0F00F0478090EA6B
:10411000010F48BF42F480724FF0004C4CEA00207F
:104120004CEA012102EB0302A0FB0113A2F50002FD
:10413000002918BF43F001035B0028BF4FEA330397
:1041400042EB22425FEA132C4CEBC2502EBFBCEB79
:10415000436FB2F57C0F70474FEA036CBCF1004F20
:1041600008BF20F00100B2F57C0F38BF70470BD5B7
:1041700082F0FF0212F5803FC8BF704700F1C040D7
:10418000D8BF00F00040704700F5000C5FEA4C0C0F
:1041900048BF7047B0F1C04000F073B890EA010F1B
:1041A0000CEAD11348BF42F48072624538BF6345C0
:1041B00004D280EA010000F00040704710B500F022
:1041C0001AF800BF8900013E00F007B800F009B8F6
:1041D0005FEA410C5FEA1C6C08D080EA010000F045
:1041E00050B85FEA400C5FEA1C6CF6D14FF000401B
:1041F000A0F5800070470EF1020E2EF0030E5EF85F
:10420000044B244204D44FEA4102B2F17F4F11D84B
:104210004FEA4003B3F17F4F0CD80ED14FEAD07C68
:10422000B2F17F4F0CEB4C0C0CF1020C08BF4CEBC5
:10423000D17C04E04FF0080C01E04FEAD17C0CEB9C
:104240004C0324FA03F404F00704B4F1040C06D27E
:104250000EEB840CBDE810404CF0010C6047DFE829
:104260000CF0070802024FF00040A0F5800010BDDE
:104270000846420018BFD2F1807288BF00F00040AB
:1042800010BDFF2141EAD050C005704751EA000C33
:1042900000F113801CF5000F58BFBCF5000F01D4CE
:1042A0008142704707D711F5000F58BF10F5000F76
:1042B00015D481427047894270471CF5000F04D520
:1042C000BCF5000FF7D5884270474FF0807C1CEB9F
:1042D000410F38BF1CEB400F01D28842704780EA83
:1042E000010081EA000180EA0100FFF7F8BE00004A
:1042F00090EA010F48BF81F000413FF552AD421AEC
:1043000004D882F00042A0EB020011444FEAD052E0
:104310004FF07F4C1CEA410FA2EBD15318BF9CEA2F
:10432000026F4AD04FF0004C4CEA00204CEA0121C9
:1043300021FA03FCB0EB0C0C0FD412F0FE0F36D0B8
:104340005FEA4C001DD5001240EBC25038BF7047E9
:104350001CF03F0F18BF70470BE0A2F101025FEAAB
:104360001C2040EBC25038BF70471CF07F0F18BFB5
:104370007047C3F12003994014BF401E20F0010094
:10438000704780084FEA122308BF7047B0FA80FCDC
:10439000A2EB0C02CCF1280C60FA0CF093EA122F7D
:1043A00004BF00EBC25070474FEAC3707047130A56
:1043B0005FEADC1008BF7047F6E79CEA026F04D0A2
:1043C00010EA5C0F08BF0020704710B5FFF713FF1D
:1043D00040DFF63E81F0004070470CF00F03092BE0
:1043E00008BF082000F059800A2B0BD0082B18BFFB
:1043F000704708BF1CF0400F0AD04FF000004FF08C
:10440000000170471CF0400F18BF4FF0004070478C
:104410001CF0100F08D020F0704300F07F4242EAF9
:10442000D3014FEA4370704700F0604021F07F42B3
:1044300042EA000201F07F4040EA727070474FF09C
:10444000FF0C4CF4E06C1CEA11531CBF9CEA030CFB
:104450009445C2BFDA4201EB02517047002B0DD0E8
:10446000BCF1000F0FD0002A01F00041A4BF41F0C1
:10447000E04141F07F614FF00000704701F00041E2
:104480004FF00000704750EA01334FF09B0C18BF0B
:104490004CF0806C7FF4A4A870471CF4801F11D0EE
:1044A0001CF4E02F03D06FEACC31490070474FF085
:1044B0004050EFF3008222F0704242EA000282F3A1
:1044C000008870474FF000007047010202030405A6
:1044D000060708090A0B0C0D0E0F10100000000053
:1044E00000000000010203040607080900000000A4
:1044F00001020304000000004C5555555555A53FD9
:104500007751C1166CC156BF9015CB19A001FA3E68
:10451000AD529C804F7E92BEC4B1B4BD9EEE213E92
:10452000D43888BEE9FAA8BD00004054FB21F93F09
:104530003163621A61B4D03D0000601A61B4D03DAD
:104540007370032E8A19A33B0000002E8A19A33B27
:10455000C14920259A837B3900000000000000003B
:104560006E83F9A22915444ED15727FCC0DD34F5DE
:10457000999562DB4190433CAB6351FE61C5BBDE64
:104580003A6E24B7E0D24D42EA2E49061C92D10978
:104590001CEB1DFE3EA729B1F53582E88444BB2EF5
:1045A00026709CE9417E5FB439D69139F439538342
:1045B0008B5F849C3B28F9BDFF97F81F0F9805DEA1
:1045C0008B112FEF1F6D0A5ACF7E366DB709CB279F
:1045D000663F464F2DEA5F9EC7BA27757BF1E5EB34
:1045E000F739073DEA92528AB15FFB6B085D8D1F78
:1045F000A6F810111111813FD561C119A0012ABF80
:104600007DFEB157E31DC73EEB9C2B8AE6E55ABE03
:104610007CD5CF5A3AD9E53D384600080000002045
:10462000D00000002801000808470008D000002042
:1046300070070000440100080000000000000000B6
:10464000000000000000000000000000000000006A
:10465000000000000000000000000000000000005A
:10466000000000000000000000000000000000004A
:104670000000000000000000000000006666A63F89
:104680000AD7233D00009041900100006666A63FD6
:104690000AD7233D000090419001000000008040B7
:1046A0000AD7A33C000000009001000000000000B9
:1046B00000000000000000000000000000000000FA
:1046C00000000000000000000000000000000000EA
:1046D00000000000000000000000000000000000DA
:1046E00000000000000000000000000000000000CA
:1046F00000000000000000000100000010000000A9
:08470000000000000024F40099
:04000005080000ED02
:00000001FF
