:020000040800F2
:100000007808002099010008DB270008DF1E00089F
:10001000D9270008E3040008CD2C000800000000E8
:10002000000000000000000000000000DF270008C2
:100030008109000800000000DD2700088128000871
:10004000B3010008B3010008B3010008B3010008C0
:10005000B3010008B3010008B3010008B3010008B0
:10006000B3010008B3010008B3010008B3010008A0
:10007000B3010008B3010008B3010008B301000890
:10008000B3010008B3010008B3010008B301000880
:10009000B3010008B3010008B3010008B301000870
:1000A000B3010008B3010008B3010008B301000860
:1000B000B3010008B3010008B3010008B301000850
:1000C000B3010008B3010008B3010008B301000840
:1000D000B3010008C12C0008B3010008B3010008F7
:1000E000B3010008B3010008B301000800F002F8F2
:1000F00000F043F80AA090E8000C82448344AAF17F
:100100000107DA4501D100F038F8AFF2090EBAE87C
:100110000F0013F0010F18BFFB1A43F0010318473B
:10012000D0450000F0450000103A24BF78C878C1DF
:10013000FAD8520724BF30C830C144BF04680C60ED
:10014000704700000023002400250026103A28BF35
:1001500078C1FBD8520728BF30C148BF0B60704739
:100160001FB500F05BF904000020002103F0B6F990
:10017000401C60601FBD10B510BD00F02AF911468B
:10018000FFF7EEFF03F0ECF800F05AF903B4FFF7C5
:10019000F2FF03BC00F09EF9094880470948004778
:1001A000FEE7FEE7FEE7FEE7FEE7FEE7FEE7FEE727
:1001B000FEE7FEE704480549054A064B7047000084
:1001C000E3280008ED0000087802002078080020ED
:1001D000780400207804002070B5064600F056F838
:1001E0000468054630460A22002100F05EF82C60C3
:1001F00070BD4FF000020429C0F0128010F0030C13
:1002000000F01B80CCF1040CBCF1020F18BF00F809
:10021000012BA8BF20F8022BA1EB0C0100F00DB8B8
:100220005FEAC17C24BF00F8012B00F8012B48BF16
:1002300000F8012B70474FF0000200B513469446BA
:100240009646203922BFA0E80C50A0E80C50B1F12E
:100250002001BFF4F7AF090728BFA0E80C5048BF42
:100260000CC05DF804EB890028BF40F8042B08BFE0
:10027000704748BF20F8022B11F0804F18BF00F8DC
:10028000012B704770477047704700000048704767
:100290001402002010B5FFF7F9FF006810BD10B57B
:1002A0000446FFF7F3FF046010BD2DE9F0479146C7
:1002B0000F4680460446002614F8015B2DB100F07D
:1002C00031F80068405DC007F6D12B2D02D02D2DEE
:1002D00018D0641E4A463946204600F02BF827B154
:1002E0003968A14201D1C7F800804FF002047105BE
:1002F0000BD54042002803DDFFF7C8FF0460A007CC
:10030000BDE8F08746F48066E4E70028F8DAFFF7F6
:10031000BDFF04606FF00040F2E700000048704746
:100320001402002010B500F079F8001D10BD00BFC8
:10033000AD3100002DE9F05F824615468B4600275F
:100340000AF10104B9460078302801D09DB113E0CC
:1003500014F8010B0127782803D0582801D045B1A3
:100360000AE00DB1102D07D1002714F8010B10255C
:1003700002E0082500E00A250026B0460EE005FB55
:10038000080005FB06F101271FFA80F801EB104673
:10039000B6F5803F00D3B94614F8010B294600F0AA
:1003A00041F80028EBDABBF1000F05D00FB1641E55
:1003B00000E05446CBF80040B9F1000F06D0FFF73B
:1003C00065FF02210160C81EBDE8F09F48EA0640B3
:1003D000FAE77546FFF7A2FFAE46050069465346A9
:1003E00020F00700854618B020B5FFF7E3FEBDE812
:1003F00020404FF000064FF000074FF000084FF08C
:10040000000B21F00701AC46ACE8C009ACE8C0091C
:10041000ACE8C009ACE8C0098D4670470048704799
:10042000340200203A2800D2303820F02002412A3D
:1004300001D3A2F13700884201D34FF0FF3070475B
:1004400010B50446AFF300802046BDE81040FFF72A
:100450009DBE00004FF0013C50F8042B51F8043BC6
:100460009A4221D1A2EB0C03934313EACC1317D188
:1004700050F8042B51F8043B9A4215D1A2EB0C031F
:10048000934313EACC130BD150F8042B51F8043BDF
:100490009A4209D1A2EB0C03934313EACC13DBD0AD
:1004A0004FF00000704700BFD01A01BAB1FA81F1D5
:1004B00001F0180122FA01F0CB40C1F12001DBB2BA
:1004C000C0B2C01A2CFA01F3D11A914311EAC31138
:1004D000E6D1704701491820ABBEFEE726000200B6
:1004E0007047FEE72DE9F05FA648A24D4FF0333686
:1004F000A14F4FF0663ADFF884B2A14C006803F0D8
:100500008BFC00222B4603F0E1F8B0463246B94698
:100510003B4603F08DFA06460F46E06B03F07CFC89
:1005200052465B4603F084FA32463B4603F01EF81F
:1005300002F0EAFFE063A16B03F048FF014620638D
:10054000606803F045FE616B03F092FC0646606351
:10055000E06803F0DDFD314603F006FEE06808D3F5
:10056000404203F0D5FD616B03F0FEFE04D2E0686B
:10057000404203F0CDFD6063206B616C074603F0E1
:1005800025FFA16803F024FE06463946206803F0E3
:100590001FFE616B03F06CFC314603F069FC0646FC
:1005A0002064E06803F0B4FD314603F0DDFDE0684F
:1005B00008D3404203F0ACFD216C03F0D5FE04D219
:1005C000E068404203F0A4FD2064206B60646E4844
:1005D000006803F021FC0022664B03F077F84246E6
:1005E0004B4603F025FA05460E46206D03F014FC39
:1005F00052465F465B4603F01BFA2A46334602F03A
:10060000B5FF02F081FF2065E16C03F0DFFE0146DB
:100610002063606903F0DCFDA16C03F029FC054652
:10062000A064E06903F074FD294603F09DFDE069D4
:1006300008D3404203F06CFDA16C03F095FE04D298
:10064000E069404203F064FDA064206BA16D0646A2
:1006500003F0BCFEA16903F0BBFD054631462069ED
:1006600003F0B6FDA16C03F003FC294603F000FC87
:1006700005466065E06903F04BFD294603F074FD13
:10068000E06908D3404203F043FD616D03F06CFE66
:1006900004D2E069404203F03BFD6065206BA06539
:1006A0003A48006803F0B8FB0022324B03F00EF822
:1006B00042464B4603F0BCF905460E46606E03F019
:1006C000ABFB52463B4603F0B3F92A46334602F0F1
:1006D0004DFF02F019FF6066216E03F077FE0146C0
:1006E0002063606A03F074FDE16D03F0C1FB054611
:1006F000E065E06A03F00CFD294603F035FDE06A91
:1007000008D3404203F004FDE16D03F02DFE04D256
:10071000E06A404203F0FCFCE065206BE16E0646B7
:1007200003F054FEA16A03F053FD05463146206AEA
:1007300003F04EFDE16D03F09BFB294603F098FBAF
:100740000546A066E06A03F0E3FC294603F00CFDD1
:10075000E06A08D3404203F0DBFCA16E03F004FE24
:1007600004D2E06A404203F0D3FCA066206BE0664E
:10077000BDE8F09F006050403333D33F6666E63FEC
:100780004400002028000020240000202C0000202D
:100790002DE9F04F85B0384C00250DF10C0B6FF0B2
:1007A0000D0A00BF4FF47A700621CDF800B0CDE9F4
:1007B000011001233B22D021304800F02DFBBDF871
:1007C0000C0040BA00B22080BDF80E1049BA09B240
:1007D00061808846BDF8101049BA09B2A1808946E7
:1007E00003F0FBF8524603F098FE06460F46A06958
:1007F00003F012FB32463B4602F0B8FE02F084FEE4
:10080000A061404603F0E9F8524603F086FE064632
:100810000F46E06903F000FB32463B4602F0A6FEBD
:1008200002F072FEE061484603F0D7F8524603F04A
:1008300074FE06460F46206A03F0EEFA32463B4647
:1008400002F094FE02F060FE6D1C2062C82DA9DB50
:100850000B4DA069294603F079FBA0612946E069A8
:1008600003F074FBE0612946206A03F06FFB20620D
:1008700005B0BDE8F08F000000000020300100202E
:10088000000048432DE9F04F85B0394CDFF8E4A073
:1008900000250DF10C0B00BF4FF47A700621CDF846
:1008A00000B0CDE9011001234322D021324800F0ED
:1008B000B3FABDF80C0040BA00B2E080BDF80E10EB
:1008C00049BA09B221818846BDF8101049BA09B267
:1008D0006181894603F081F80022534602F0F6FE5A
:1008E00006460F46206B03F097FA32463B4602F06D
:1008F0003DFE02F009FE2063404603F06EF8002240
:10090000534602F0E3FE06460F46606B03F084FA9E
:1009100032463B4602F02AFE02F0F6FD606348468E
:1009200003F05BF80022534602F0D0FE06460F4665
:10093000A06B03F071FA32463B4602F017FE02F05C
:10094000E3FD6D1CA063C82DA6DB0C4D206B294672
:1009500003F0FCFA20632946606B03F0F7FA60634A
:100960002946A06B03F0F2FAA06305B0BDE8F08F52
:10097000000000200060604030010020000048437B
:10098000704772B6FEE710B590F8211000220229D8
:1009900005D00421816380F82020012010BD01686A
:1009A0000B6823F00E030B6001680B6823F0010352
:1009B0000B6090F84030C46B012101FA03F36360CF
:1009C00080F8211080F82020104610BD10B590F856
:1009D00021100024022903D00421816301243DE079
:1009E00001680A6822F00E020A6001680A6822F0B3
:1009F00001020A601A4A0168914201D1012121E0F5
:100A0000174A1432914201D110211BE0144A2832B6
:100A1000914201D1891515E0114A3C32914201D130
:100A200089140FE00E4A5032914202D14FF48031C6
:100A300008E00B4A6432914202D14FF4801101E088
:100A40004FF08071064A083A5160012180F8211068
:100A5000002180F82010416B01B18847204610BD6D
:100A60000800024070B5044600F00CF90546601C11
:100A700002D004480078044400F004F9401BA0426E
:100A8000FAD370BDBC0000202DE9F84FDFF8B89113
:100A90000024A9F1040B23460F2709F1040AABF146
:100AA000040EC9E00125A5402A40AA427DD1674E27
:100AB000D1F804C0ACEB0608B44532D014DCBCF16C
:100AC000030F3AD009DCBCF1000F2AD0BCF1010FB2
:100AD0001CD0BCF1020F31D11DE0BCF1110F17D0B9
:100AE000BCF1120F2AD119E0B8F5881F19D006DC25
:100AF000B8F5803F15D0B8F5801F1FD111E0B8F5CB
:100B0000001F0ED0B8F5041F18D10AE0CB6815E01D
:100B1000CB681B1D12E0CB6808330FE0CB680C33A9
:100B20000CE08B682BB1012B4FF0080303D045611B
:100B300004E0042302E0056100E00023FF2A01D85D
:100B4000064601E000F104064FEA840501D9A5F14B
:100B50002005D6F8008007FA05FC28EA0C0803FAFD
:100B600005F548EA0508C6F800804D68ED0062D535
:100B7000374DAE6946F00106AE61AD6924F003065B
:100B800005F001050095334D06EB050CDCF8085027
:100B9000A607360F07FA06F825EA0805DFF8B88039
:100BA000404503D14FF0000817E044E0DFF8AC8087
:100BB000404502D14FF001080FE0DFF8A480404526
:100BC00002D14FF0020808E0DFF89880404502D1DA
:100BD0004FF0030801E04FF0040808FA06F848EA6D
:100BE0000508CCF808804D68D9F80060ED024D4644
:100BF00001D5164300E096432E604D68DAF8006098
:100C0000AD02554601D5164300E096432E604D686F
:100C1000DBF80060AD035D4601D5164300E0964366
:100C20002E604D68DEF80060ED03754601D5164371
:100C300000E096432E60641C0D682A46E5407FF470
:100C400031AFBDE8F88F000008040140000011102A
:100C5000001002400000014000080140000C01406B
:100C60000010014000140140C26821EA02030A405A
:100C700043EA0241016170470AB10161704709040A
:100C8000FBE700000148806870470000BC000020BE
:100C900070B5040025D094F83D00002520B984F8F3
:100CA0003C50204600F078FA242084F83D0020686B
:100CB000016821F0010101602068016841F40041F0
:100CC00001602068016821F40041016000F0C2FB6E
:100CD0004D4A6168914201D84C4900E04C49884234
:100CE00001D2012070BD4B492368B0FBF1F15E6871
:100CF00026F03F060E435E606368934206D94FF4C8
:100D0000967359434FF47A73B1FBF3F12368491C8E
:100D10001E6A26F03F06314319626168914210D87D
:100D20004900401EB0FBF1F2521CC2F30B02042A30
:100D300001D2042022E0B0FBF1F0401CC0F30B0014
:100D40001CE0A268F2B301EBC10303EB0116431EE2
:100D5000B3FBF6F35B1C43F480431B0549D092B30D
:100D600001EBC10202EB0111401EB0FBF1F0401C8F
:100D7000C0F30B0040F4804040F400402168CA6991
:100D80004CF6FF739A431043C861D4E9071001433E
:100D90002068026822F0C00211430160D4E9030117
:100DA00001432068826848F2FF339A43114381600F
:100DB000D4E9050108432168CA6822F0FF02104304
:100DC000C86001E00EE016E02068016841F0010112
:100DD00001602564202084F83D00256384F83E509E
:100DE000002070BD01EB4106431EB3FBF6F35B1C14
:100DF000B3E70120C2E701EB4101401EB0FBF1F077
:100E0000401CC0F30B00B7E7A086010080841E00E1
:100E100000093D0040420F002DE9FF4F83B000253F
:100E2000DDE910799A4693460446DDF8488000953E
:100E3000FFF728FF064694F83D0020287CD11923AF
:100E4000012285492046009601F060F90028F5D17D
:100E500094F83C0001286FD0012084F83C00206801
:100E60000168C90703D1016841F0010101602068F0
:100E7000016821F400610160222084F83D004020D7
:100E800084F83E0025646762A4F82A90608D20856E
:100E90007248E062CDE9008653465A4620460499DE
:100EA00001F036F800287DD1208DDFF8B49120279D
:100EB00068B1012814D00228206801681ED041F4CE
:100EC000806101602068416980690090B6E0206817
:100ED000416981690091016841F400710160ADE0F0
:100EE0002068016821F48061016072B62068416960
:100EF00081690091016841F400710AE041F40061E8
:100F0000016072B62068416981690091016821F42D
:100F10008061016062B691E0032868D801280CD096
:100F2000022843464FF000024946204600960FD063
:100F300001F0ECF8B0BB10E08BE0324641462046B1
:100F400001F08AF970BB20680069616A08706CE082
:100F500001F0DCF830BB72B634E02068016821F49F
:100F60008061016072B620680069616A0870606A19
:100F7000401C6062208D401E2085608D401E608573
:100F8000384846F2A8110068B0FBF1F0C0EBC00091
:100F900000EB80000090401E009008D0206840695F
:100FA000C04300E029E040070CD50098F3E744F87F
:100FB000305F6773A573206940F02000206162B63E
:100FC00025731AE02068016841F40071016020680F
:100FD0000069616A0870606A401C6062218D491E68
:100FE0002185618D491E618562B621681BE032460C
:100FF0004146204601F030F918B1012007B0BDE8A4
:10100000F08F20680069616A0870606A401C606245
:10101000218D491E2185618D491E618521684A699E
:10102000D24352070AD409690170606A401C6062A9
:10103000208D401E2085608D401E6085208D0028FB
:101040007FF46AAF84F83D7084F83E5084F83C50D9
:10105000D4E70220D2E70000020010000000FFFFEA
:1010600004000100C80000202DE9FF4F83B09A461C
:10107000DDE9119793460446DDF84080FFF702FE54
:10108000054694F83D0020287FD1192301224049CC
:101090002046009501F03AF8002876D194F83C00FB
:1010A000012872D0012084F83C0020680168C9073B
:1010B00003D1016841F0010101602068016821F459
:1010C00000610160212084F83D00402084F83E004A
:1010D00000262664C4F82480A4F82A90608D208518
:1010E0002C48E062CDE9007553465A4620460499E3
:1010F00000F08CFF70B930E02A463946204601F0F6
:10110000E3F858B1206C042804D12068016841F448
:1011100000710160012007B0BDE8F08F606A2168AE
:1011200000780861606A401C6062218D491E89B2A6
:101130002185628D521E628522685369DB435B07FD
:101140000BD469B100781061606A401C6062208D28
:10115000401E2085608D401E6085208D0028CBD1EB
:101160002A463946204600F0A5FF0028CAD154F887
:101170003D0B016841F400710160202004F81E0954
:10118000E67766770020C6E7FFE70220C3E70000A6
:10119000020010000000FFFF10B586B00021009192
:1011A0000191029103910068104988421BD1104CB3
:1011B000A06940F00800A061A069694600F008003D
:1011C00004904FF44060009012200190032003909F
:1011D0000848FFF759FCE06940F48000E061E069ED
:1011E00000F48000049006B010BD000000580040DC
:1011F00000100240000C014002488168027811444E
:1012000081607047BC000020074810B5016841F0BC
:1012100010010160032000F075F80F2000F006F8BF
:1012200000F024F8002010BD0020024070B50D4DE4
:1012300004464FF47A712878B1FBF0F00A49096846
:10124000B1FBF0F000F0DCFA48B9102C07D2002214
:101250002146501E00F036F800206C6070BD012061
:1012600070BD0000BC000020C80000200C4808B57C
:10127000816941F001018161816901F00101009101
:10128000C16941F08051C161C06900F08050009097
:101290000448416821F0E06141F00071416008BDFF
:1012A0000010024000000140002809DB00F01F028E
:1012B000012191404009800000F1E020C0F80011B8
:1012C00070470000F0B40E4B1B680C46C3F30223BA
:1012D000C3F10705042D00D90425191D072901D2E2
:1012E000002300E0DB1E012606FA05F1491E21401D
:1012F00099409E40761E16403143F0BC01F0FBBC85
:101300000CED00E0064900F0070208684FF6FF0305
:10131000184040EA0220034A10430860704700006A
:101320000CED00E00000FA052DE9F0470F4605003E
:1013300061D0434E306800F00700B84209D23068EF
:1013400020F0070038433060306800F00700B842F2
:1013500051D128683B4C810712D5400703D56068FE
:1013600040F4E06060602878000703D5606840F4CE
:10137000605060606068A96820F0F0000843606019
:101380002878C00728D06868012810D02168022872
:1013900010D0890700292EDA616821F0030101438A
:1013A0006160FFF76FFC804641F288390DE02168EB
:1013B0008903EFE78901EDE7FFF764FCA0EB080183
:1013C000494502D90320BDE8F0876068696800F0EC
:1013D0000C00B0EB810FEFD1306800F00700B8428D
:1013E0000BD9306820F0070038433060306800F0D7
:1013F0000700B84201D00120E5E72878400705D56D
:101400006068E96820F4E0600843606028780007BD
:1014100006D56068296920F4605040EAC100606028
:1014200000F038F86168084AC1F30311515CC84004
:101430000649086006480068FFF7F8FE0020C2E78A
:101440000020024000100240B8450008C8000020FB
:10145000C00000200448054900684968044AC1F3F7
:101460000221515CC8407047C800002000100240B3
:10147000C84500080448054900684968044AC1F3A2
:10148000C221515CC8407047C800002000100240D3
:10149000C84500080E4A51680E4801F00C03042BA1
:1014A00011D0082B0FD10C48C1F38343C903C05C92
:1014B0000AD55168084AC1F34041921E515C054A61
:1014C0005043B0FBF1F070470449484370470000B7
:1014D0000010024000127A00A845000800093D00F3
:1014E0002DE9F84F040070D02078C04DC00749D0D6
:1014F0006868C0F38100012807D06868C0F38100E4
:10150000022809D16868C00306D52868800339D548
:1015100060680028E7D035E06068B0F5803F0BD008
:1015200010B1B0F5A02F11D0286820F480302860C9
:10153000286820F4802002E0286840F48030286089
:10154000606890B1FFF79EFB06460AE0286840F409
:1015500080202860F0E700BFFFF794FB801B642821
:1015600073D828688003F7D50CE0FFF78BFB06469D
:1015700005E000BFFFF786FB801B6428F0D82868D1
:101580008003F7D420789A4E80074FF001094FF07E
:10159000000839D5686810F00C0F07D06868C0F3F0
:1015A0008100022809D16868C00306D42868800732
:1015B00014D52069012808D110E02069B0B1C6F81F
:1015C0000090FFF75FFB074605E00AE1FFF75AFBD3
:1015D000C01B0228C4D828688007F7D5286861692D
:1015E00020F0F80040EAC10028600DE0C6F8008055
:1015F000FFF748FB074604E0FFF744FBC01B022847
:1016000023D828688007F7D4207800072CD579489C
:10161000A169D9B1C0F80090FFF734FB074604E098
:10162000FFF730FBC01B02280FD8686A8007F7D588
:1016300071484FF4FA510068B0FBF1F0009000BF20
:101640000098411E0091FAD20EE080E0C0F80080C0
:10165000FFF718FB074604E0FFF714FBC01B022846
:1016600075D8686A8007F7D42078400760D5E869A4
:101670000027C00008D4E86940F08050E861E869BC
:10168000012700F0805000905C480168C90513D420
:101690000168834641F480710160FFF7F3FA8246E6
:1016A00006E000BFFFF7EEFAA0EB0A0064284ED870
:1016B000DBF80000C005F5D5E06801280AD008B1C4
:1016C000052813D0286A20F001002862286A20F03B
:1016D000040002E0286A40F001002862E06841F25C
:1016E000883B98B1FFF7CEFA82460BE0286A40F0BB
:1016F00004002862EEE700BFFFF7C4FAA0EB0A017E
:1017000059455AD8286A8007F6D50CE0FFF7BAFA8F
:10171000824605E0FFF7B6FAA0EB0A0159454CD81E
:10172000286A8007F6D41FB1E86920F08050E8618C
:10173000E06988B36968C1F38101022944D00228B5
:10174000C6F8608004D0FFF79DFA044638E034E024
:10175000FFF798FA074604E0FFF794FAC01B022847
:101760002BD828688001F7D4206AB0F5803F05D1D6
:101770006868A16820F4003008436860D4E9080173
:101780000843696821F4741108436860C6F86090E2
:10179000FFF778FA044606E025E000BFFFF772FA8B
:1017A000001B022809D828688001F7D51BE000BF7C
:1017B000FFF768FA001B022802D90320BDE8F88F62
:1017C00028688001F4D40EE00128F7D06868226A06
:1017D00000F48031914204D1616A00F470108842B3
:1017E00001D00120EAE70020E8E7000000100240F5
:1017F0000000424280044242C800002000700040C5
:1018000010B5401EB0F1807F01D3012010BD4FF014
:10181000E02460610F21601701F06DFA0020A061E3
:1018200007202061002010BD10B590F83C20012A4F
:1018300022D0012280F83C20CA688C6822F44072D1
:1018400022434C6822F4806222430C6822F4006236
:1018500022430C6922F4805222434C6922F4005244
:101860002243C969002322F480420A4301684A6482
:1018700080F83C30002010BD022010BD70B590F8FB
:101880003C20012A26D0012480F83C40022280F826
:101890003D2003685A689D6822F070060A6832434A
:1018A0005A600D4B02689A4208D0B2F1804F05D0C1
:1018B0000A4B9A4202D00A4B9A4204D1496825F059
:1018C00080031943916080F83D40002180F83C106E
:1018D000084670BD022070BD002C0140000400408D
:1018E0000008004000B585B00021009101910291EF
:1018F000039100680B49884212D10B48816941F07D
:10190000040181618069694600F0040004904FF48D
:10191000706000900220019003900448FFF7B4F833
:1019200005B000BD002C014000100240000801403D
:1019300070B5044690F83C0000260D4601280FD0F3
:10194000012084F83C006AB1042A1DD0082A2FD057
:101950000C2A3FD00126002084F83C00304670BDA0
:10196000022070BD206801F001F82068816941F013
:10197000080181612068816921F00401816120688A
:1019800081692A69114311E0206801F017F8206885
:10199000816941F4006181612068816921F480617D
:1019A0008161206881692A6941EA02218161D2E767
:1019B000206801F02FF82068C16941F00801C16179
:1019C0002068C16921F00401C1612068C1692A69E8
:1019D000114311E0206801F049F82068C16941F421
:1019E0000061C1612068C16921F48061C161206822
:1019F000C1692A6941EA0221C161ACE710B504005E
:101A000003D094F83D0010B107E0012010BD002084
:101A100084F83C00204600F01FF8022084F83D00C6
:101A2000211D206800F05EFF012084F8460084F844
:101A30003E0084F83F0084F8400084F8410084F8B8
:101A4000420084F8430084F8440084F8450084F898
:101A50003D00002010BD000008B50068064988421E
:101A600008D10648816941F400618161806900F410
:101A70000060009008BD0000002C014000100240F2
:101A800010B50446022249B104290ED0082913D00A
:101A900094F84100012816D0012010BD94F83E00B2
:101AA0000128F9D184F83E200FE094F83F00012886
:101AB000F2D184F83F2008E094F840000128EBD1EF
:101AC00084F8402001E084F841200122206800F0E1
:101AD0003FFF0F492068884203D1426C42F4004224
:101AE00042642068884208D0B0F1804F05D009498F
:101AF000884202D00849884204D1816801F0070178
:101B0000062903D0016841F001010160002010BDE9
:101B1000002C01400004004000080040704770475E
:101B2000F8B5016804460868CA684B6910F00F0FE1
:101B30004FF0000559D003F0010602F490773743C7
:101B400065D0C10705D0D10503D5616C41F0010115
:101B50006164410705D5D90703D0616C41F00201EA
:101B60006164810705D5D90703D0616C41F0040198
:101B70006164010707D502F02001314303D0616C95
:101B800041F008016164616C00293AD0800604D5F7
:101B9000900602D5204600F0BAFF20684069616CCB
:101BA000C0F38010090700D460B3204600F088FF1E
:101BB00020684069400621D52068143050E8001F95
:101BC00021F0400140E80012002AF5D1E06BA8B1F5
:101BD0006D494163E06BFEF7F9FE002811D0E06B20
:101BE000416B01B0BDE8F040084783060FD593066E
:101BF0000DD52046BDE8F84000F089BF2046FFF72C
:101C00008EFFF8BD2046FFF78AFF6564F8BD266B9E
:101C10002023012E7CD1C6067AD5D60678D5086851
:101C20004868009048694FF00206400640D5E16BD5
:101C3000086840680004000CE8D0A28D8242E5D913
:101C4000E085886920282DD020680C3050E8001FDE
:101C500021F4807140E80012002AF5D12068143088
:101C600050E8001F21F0010140E80012002AF5D1E0
:101C70002068143050E8001F21F0400140E80012B5
:101C8000002AF5D184F84230256320680C3050E8F2
:101C9000001F21F0100140E80012002AF5D1E06B8E
:101CA000FEF771FE6663A08DE18D401A81B22AE0D5
:101CB000A08DE18D401A81B2E08D0028A6D00029C8
:101CC000A4D022680C3252E8000F20F4907042E851
:101CD0000007002FF5D12068143050E8002F22F0C3
:101CE000010240E80027002FF5D184F84230256337
:101CF00020680C3050E8002F22F0100240E800234A
:101D0000002BF5D166632046FFF708FFF8BDFFE71B
:101D100005062BD5150629D594F841002128F5D1C3
:101D2000A068B0F5805F01D12069B0B1206A411C84
:101D30002162216800784860E08C401E0004000C9D
:101D4000E084E3D12068C16821F08001C16020688F
:101D5000C16841F04001C160D8E7206A0088C0F343
:101D600008004860206A801C2062E5E74006CDD567
:101D70005006CBD5CA68204622F04002CA6084F8DB
:101D8000413000F0ABF8C1E7B12A000870B504009B
:101D900004D094F84100002510B106E0012070BD88
:101DA00084F84050204600F023F8242084F84100B5
:101DB0002068C16821F40051C160204600F008FF8E
:101DC0002068016921F4904101612068416921F096
:101DD0002A0141612068C16841F40051C160656415
:101DE000202084F8410084F842006563002070BD23
:101DF00030B585B0002400940194029403940068E7
:101E00001B49884232D11B48816941F4804181617C
:101E1000816901F480410491816941F00801816187
:101E20008069154D00F008000490402000900220C9
:101E300001900320039069462846FEF725FE802086
:101E4000CDE90004694628460294FEF71DFE0B48C2
:101E5000416841F0E06141F0040141600022114617
:101E60002520FFF72FFA2520FFF71EFA05B030BD19
:101E70000038014000100240000C01400000014009
:101E800090F84230202B01D00220704721B11AB1C6
:101E90000023036300F0F8BE0120704710B50B4823
:101EA000FEF79AF90A4908600848401F01F054FA01
:101EB00006490922491F0748FFF7E2FFBDE8104025
:101EC0004FF400510448FEF7CFBE0000D1000020BF
:101ED000B4000020CC010020001001407047FEE754
:101EE00001684A69D24352050FD46FF480624A6197
:101EF000002140F8301F202242738173026942F0B2
:101F00000402026101730120704700207047000045
:101F10002DE9F84F0446006889460B9D01689846F4
:101F2000174641F4806101602068016841F48071C6
:101F3000016000954FF0011B0022594620460A9B84
:101F400000F0E4F84FF4007A40B120680068C00562
:101F500001D5C4F840A00320BDE8F88F216809F03E
:101F6000FE0008612B46284920460A9A00F016F91F
:101F7000F0BB20684169806900902A4620460A9992
:101F800000F0A2F940B1206C04283AD12068016821
:101F900041F40071016034E0FEB2B8F1010F09D0E4
:101FA0002168380A08612A4620460A9900F08CF90F
:101FB0000028E8D1206806612A4620460A9900F0E8
:101FC00083F90028DFD12068016841F48071016045
:101FD00000950022594620460A9B00F097F80028F9
:101FE000B3D1216809F0FF0040F00100086100E072
:101FF00007E02B46044920460A9A00F0CFF8002853
:10200000AAD00120A8E70000020001002DE9F84352
:10201000044600680D46DDE90897016898461646B3
:1020200041F4807101604B4600224FF001112046BF
:10203000009700F06BF848B120680068C00502D531
:102040004FF4007020640320BDE8F883216805F098
:10205000FE0008613B464A461549204600F09EF8BE
:1020600088B920684169806900903A46494620460F
:1020700000F02AF948B1206C042804D120680168D6
:1020800041F4007101600120DEE7F5B2B8F1010F03
:1020900009D02168300A08613A464946204600F0D6
:1020A00013F90028E7D1206805610020CCE7000083
:1020B0000200010070B516460D4604461EE020469B
:1020C000FFF70EFF08B1012070BD681C16D0FEF7A7
:1020D000D9FD801BA84200D885B920684069C0435B
:1020E00040070BD5002044F8300F20216173A07306
:1020F000216941F0200121612073E4E720684069F3
:10210000C0434007DBD4002070BD00002DE9F0473C
:10211000984617460D460446C1F30746DDF8209061
:102120002AE000BFB8F1FF3F26D0FEF7ABFDA0EBE1
:102130000901414502D8B8F1000F1DD12068012ED8
:1021400016D0806925EA00000004000C12D000209F
:10215000B84211D1002044F8300F20216173A073E0
:10216000216941F02001216120730120BDE8F08741
:102170004069E7E70120EBE72068012E0AD080697B
:1021800025EA00000004000C06D00020B842C9D0A7
:102190000020EBE74069F3E70120F7E72DE9F0477E
:1021A000984616460D4604464FF000094FF0200AA7
:1021B000C1F3074723E020684069C043400515D4B8
:1021C0002068016841F40071016021686FF480604B
:1021D0004861C4F8309084F83DA084F83E90216CAA
:1021E00041F00401216484F83C9021E0701C06D089
:1021F000FEF748FDA0EB0800B04203D816B1012F4E
:102200001FD021E02068012F15D0806925EA000049
:102210000004000C18D000BF44F8309F84F80DA0D3
:1022200084F80E90216941F02001216184F80C901E
:102230000120BDE8F087406925EA00000004000C99
:10224000EAD12068406901E02068806925EA000041
:102250000004000CAFD1ECE72DE9F04100259046D9
:102260000E460446202728E04069C043C0060CD42F
:1022700054F8301B6FF01000486144F8105967772C
:10228000A577206A2062257714E0FEF7FBFCA0EB1F
:102290000800B04200D886B920684069C0434006B3
:1022A0000BD544F8305F6773A573206940F02000B8
:1022B000206125730120BDE8F08120684169C94390
:1022C0004906D1D40020F6E770B516460D460446FF
:1022D0001EE02046FFF704FE08B1012070BD681C17
:1022E00016D0FEF7CFFC801BA84200D885B9206825
:1022F0004069C04300060BD5002044F8300F202170
:102300006173A073216941F0200121612073E4E72A
:1023100020684069C0430006DBD4002070BD000087
:10232000F0B585B0012504A8CDE900054FF47A7415
:102330002B467522D02102941B48FEF76DFD9DF8B7
:10234000100068282ED1002703AE8DF80C7000967F
:10235000CDE9015401236B22D0211348FEF784FEFE
:1023600007208DF80C000096CDE9015401231922B5
:10237000D0210D48FEF778FE8DF80C700096CDE95F
:10238000015401231C22D0210748FEF76DFE8DF871
:102390000C700096CDE9015401231B22D021024884
:1023A000FEF762FE05B0F0BD300100202DE9F043DC
:1023B00085B04FF47A72062103A88DE80700012347
:1023C0003B22D0212748FEF727FDBDF80C00264C04
:1023D00040BA07B22780BDF80E0040BA00B2608054
:1023E0008046BDF8100040BA00B2A0808146A069C6
:1023F00001F012FD05460E46384601F0EEFA6FF088
:102400000D073A4602F089F82A46334601F01AFCD5
:1024100001F07AF8E060E06901F0FEFC05460E4646
:10242000404601F0DAFA3A4602F077F82A46334697
:1024300001F008FC01F068F82061206A01F0ECFC72
:1024400005460E46484601F0C8FA3A4602F065F8DD
:102450002A46334601F0F6FB01F056F8606105B0FC
:10246000BDE8F08330010020000000202DE9F04F8E
:1024700085B04FF47A72062103A88DE80700012386
:102480004322D0215B48FEF7C7FCBDF80C005A4C34
:1024900040BA06B2E680BDF80E0040BA00B2208114
:1024A0008146BDF8100040BA00B260818246206BC0
:1024B00001F0B2FC07460D46304601F08EFADFF817
:1024C0003CB100225B4601F001F93A462B4601F08F
:1024D000B9FB01F019F880466062606B01F09CFC6A
:1024E00006460D46484601F078FA00225B4601F0A8
:1024F000EDF832462B4601F0A5FB01F005F8064643
:10250000A062A06B01F088FC07460D46504601F022
:1025100064FA00225B4601F0D9F83A462B4601F0F6
:1025200091FB00F0F1FFDFF8D8A00546E0625146CC
:10253000404601F00BFDE16B01F09AFCE06351466F
:10254000304601F003FD216C01F092FC20645146FD
:10255000284601F0FBFC01F05FFC2A4EDFF8A89052
:1025600032464B4601F064FADFF8A0800022434671
:1025700001F0ACF800F062FF05460F46206C01F058
:102580004BFC2A463B4601F053FA05460F46E06BEA
:1025900001F042FC2A463B4601F054FB00F0B4FF38
:1025A000E0635146E06A01F0D1FC01F035FC3246AF
:1025B0004B4601F03DFA0022434601F087F800F057
:1025C0003DFF06460D46E06B01F026FC32462B46E9
:1025D00001F02EFA06460D46206C01F01DFC324635
:1025E0002B4600F0C3FF00F08FFF206405B0BDE86C
:1025F000F08F0000300100200000002000606040EB
:1026000000007A43894160E5D0220940008066409D
:1026100070B586B000241C48009401940294039481
:10262000816941F010018161816901F0100104911B
:10263000816941F020018161816901F020010491EB
:10264000816941F008018161816901F0080104910B
:10265000816941F00401816180690C4E00F0040041
:102660004FF400550490002229463046FEF704FB43
:1026700001200095CDE9010402200390694630460F
:10268000FEF702FA06B070BD0010024000100140D3
:102690000D4810B50B4901600C49416000214FF411
:1026A00080428160C0E9031241618161C1610162C0
:1026B000FEF7EEFA002803D0BDE81040FEF761B93E
:1026C00010BD00000058004030010020A08601002D
:1026D00010B592B000240F941C2168461094FDF7A9
:1026E000AAFD202107A8FDF7A6FD2C482A49016074
:1026F0004721C0E9011444F61F61C0E90314446195
:102700008461FFF77BF908B1FEF73BF90F940FA93D
:1027100022481094FFF7B2F808B1FEF732F96020B2
:10272000CDE90004029403940494059400226946C0
:102730001A480694FFF7FCF808B1FEF722F90422C4
:1027400069461648FFF7F4F808B1FEF71AF90822AF
:1027500069461248FFF7ECF808B1FEF712F90C22AF
:1027600069460E48FFF7E4F808B1FEF70AF9079446
:10277000089409944FF400500A94CDE90B4007A93E
:1027800006480E94FFF750F808B1FEF7FAF8034830
:10279000FFF7A8F812B010BD002C01408401002002
:1027A0000C4810B50A4901604FF4165141600021F0
:1027B00081600422C160C0E904128161C161FFF738
:1027C000E5FA002803D0BDE81040FEF7DAB810BDE6
:1027D00000380140CC010020FEE7FEE7704770475B
:1027E0002DE9F0412148006801F092FC204905469E
:1027F00009680F4601F03CFB1E49044609688846FB
:1028000001F036FB1C4909680E4601F031FB01F06E
:102810005FFC1A4908602046414601F0D7FD314669
:1028200001F0D4FD01F054FC1449091D086028464C
:10283000394601F0CBFD0446414601F0C7FD314663
:1028400001F016FB01F044FC0C49083108602046F9
:10285000414601F00DFB314601F0B8FD01F038FCB6
:1028600006490C310860BDE8F0810000B40000208A
:102870009800002084000020AC000020342C01408F
:10288000FEF7BABC30B58FB028216846FDF7D3FCFF
:1028900014210AA8FDF7CFFC01210804CDE900109E
:1028A0000024029402250491CDE907504FF4E01072
:1028B00009906846FEF714FE08B172B6FEE70F20D5
:1028C000CDE90A054FF48060CDE90C4002210AA849
:1028D0000E94FEF729FD002801D072B6FEE70FB076
:1028E00030BD7047F0B50268164B174C174D4FF0CE
:1028F0008047984205D0B84203D0A04201D0A842F8
:1029000003D122F070064A683243984205D0B8429B
:1029100003D0A04201D0A84203D122F44074CA6877
:1029200022434C6922F08002224302608A68C2621C
:102930000A688262984201D10969016301214161FB
:10294000F0BD0000002C01400004004000080040E1
:1029500010B501F01F030121046A99408C43046201
:10296000016A9A401143016210BD000030B5036A4C
:10297000026A22F0010202624268846924F073054F
:102980000C682C4323F002058B682B430A4DA842A8
:102990000BD123F00805CB6822F440722B434D691C
:1029A00023F0040315438A692A434260846149681D
:1029B0004163036230BD0000002C014030B5026A63
:1029C000036A23F010030362436884690D6824F4EA
:1029D000E64444EA05248D6822F0200242EA05120A
:1029E0000B4DA8420ED1CD6822F0800242EA0512BA
:1029F0004D6923F4406343EA85038D6922F0400268
:102A000043EA85034360846149688163026230BDA3
:102A1000002C014030B5036A026A22F4807202621F
:102A20004268C46923F4007324F073050C682C43D6
:102A30008D6843EA05230C4DA8420ED1CD6823F4DE
:102A4000006343EA05234D6922F4405242EA05122D
:102A50008D6923F4806342EA05124260C4614968CB
:102A6000C163036230BD0000002C014030B5046A30
:102A7000026A22F4805202624268C3690D6823F43C
:102A8000E64343EA05238D6824F4005444EA053400
:102A9000064DA84204D14D6922F4804242EA8512D3
:102AA0004260C36149680164046230BD002C01408A
:102AB00010B5406A0021C185C184FFF730F810BD10
:102AC00001680C3151E8002F22F4907241E8002394
:102AD000002BF5D10168143151E8002F22F00102DA
:102AE00041E80023002BF5D1016B012909D10168D0
:102AF0000C3151E8002F22F0100241E80023002B96
:102B0000F5D1202180F8421000210163704708B5FB
:102B100090F84210222901D0022008BD82684FF4AB
:102B200080539A4201D1016921B1816A9A421BD036
:102B30004AB10AE00268816A5268C2F308020A8058
:102B4000816A891C08E0026972B10268526802F069
:102B50007F020A70816A491C8162C18D491E090485
:102B6000090CC18503D01BE002685268F1E70168D7
:102B7000CA6822F02002CA600168CA6822F4807222
:102B8000CA6001684A6922F001024A61202180F886
:102B9000421000214163026B012A03D0FFF77EF946
:102BA000002008BD016301680C3151E8002F22F0BC
:102BB000100241E80023002BF5D101680A68D20613
:102BC00002D50A6849680091818DFEF7A7FFE7E703
:102BD00070B5044600680169E26821F44051114370
:102BE00001612169A0680843616908432168CA68D6
:102BF00041F20C639A430243CA6020684169A269AA
:102C000021F44071114341611E492068884202D17C
:102C1000FEF730FC01E0FEF71DFC00EBC00101EB0C
:102C20000012606864218000B2FBF0F3B3FBF1F3A3
:102C30006FF018067343B2FBF0F5B2FBF0F605EB4C
:102C40008305322303EB0515B5FBF1F5B6FBF1F671
:102C500005F0F00505EB0615B2FBF0F6B2FBF0F05F
:102C6000B0FBF1F06FF01802504306EB800003EB6D
:102C70000010B0FBF1F0216800F00F0028448860DC
:102C800070BD00000038014081628285C28500214C
:102C90004164222180F84210016921B10168CA68AB
:102CA00042F48072CA6001684A6942F001024A61D6
:102CB0000068C16841F02001C16000207047000039
:102CC0000148FEF72DBF0000CC010020FEE74900BF
:102CD00050EAC12018BF04204A0D18BF40F001007F
:102CE00040F2FF72B2EB515F08BF40F002000128D2
:102CF00008BF052070470907090E002804DB00F112
:102D0000E02080F80014704700F00F0000F1E02090
:102D100080F8141D704700002DE9F74F144694B059
:102D20000021C4E902111599079121F00045C94914
:102D30008D4206DC1599C4E9000117B00020BDE8FA
:102D4000F08FC549DFF814A3A9423CDD0799C44EB2
:102D50000029C44FC44A1599534619DD00F072FF8B
:102D6000554506D0C14AC24B00F06CFFC4E90001D2
:102D70000AE04FF0D352BE4B00F064FF32463B46B0
:102D800000F060FFC4E9000117B00120BDE8F08F3A
:102D900000F0ECFB554506D0B44AB54B00F0E6FB1D
:102DA000C4E900010AE04FF0D352B14B00F0DEFB62
:102DB00032463B4600F0DAFBC4E9000117B04FF0A1
:102DC000FF30BDE8F08FAB49A942159978DB21F0BF
:102DD000004183468846A84AA84B00F029FE0022FD
:102DE000A74B00F0C3FB00F0C9FD099000F0F5FD12
:102DF00006460F469C4A534600F01AFE43465A4682
:102E000000F014FF80468A46984A994B304639466E
:102E100000F00EFE2A0D01250B924246534600F0AB
:102E200005FF032DC4E9000139D00B98C1F30A5105
:102E3000401A05EB45111139814230DA9148C346F9
:102E4000784400EB0510CDF80CA00C90D0E90023DD
:102E50003046394600F0ECFD02460B4604910690E0
:102E60005846039900F0EEFE80468A4602460B461D
:102E70005846039900F0E6FE049B069A00F0E2FE35
:102E800083460C9803913946D0E90223304600F07E
:102E9000CFFD5A46039B00F0D5FE6D1CBDE7079899
:102EA0000028A2BF099817B0BDE8F08F616881F0D3
:102EB00000416160099817B04042BDE8F08FFFE71C
:102EC00084461598C1F31301C0F30A50A0F2F530FF
:102ED0004FEA601800F01F06C6F120001390002092
:102EE0000690079041F4801E05206D4676B1664A33
:102EF00008EB00017A4452F8213002EB8101B34023
:102F00004A68139922FA01F1194305E05F4908EB79
:102F10000002794451F82210A1FB0E27A1FB0C13EB
:102F20001A449A4234BF0123002303EB070A05EB3E
:102F30008003D3E901B70F448F4234BF0121002140
:102F400093448B4411B1934502D903E0934501D2D8
:102F5000012100E00021C3E901B7514445F82010E8
:102F6000011EA0F10100C1DC0298059F00F1005094
:102F7000800F12900298DDE90356800000F02DFDCD
:102F8000834628460D9100F03FFD6FF01D0201F0D1
:102F9000C4FACDE90E01304600F036FD6FF03D0277
:102FA00001F0BBFA80468A46384600F02DFD6FF0EE
:102FB0005D0201F0B2FA074642465346119100F015
:102FC000D5FADDE90E2300F0D1FA5A460D9B00F048
:102FD000CDFA00250E465A4628460D9B00F032FEDB
:102FE000DDE90E2300F02EFE4246534600F02AFE95
:102FF0003A46119B00F01AFEDFF898A0244A534687
:1030000000F016FD07468846234A244B31462846E1
:1030100000F00EFD3A46434600F0A8FA07468846FF
:103020004FF0A84253463146284600F001FD3A468B
:10303000434600F09BFA159A12F0004F04D0129A02
:1030400081F0004152421292C4E90001129817B077
:10305000BDE8F08FFB21E93F7CD90240FB21F93F1D
:103060007370032E8A19A33B000040543163621A27
:1030700061B4D03DFB21394183C8C96D305FE43F65
:103080000000E03FBC170000381700001A170000CE
:10309000182D4454FB21F93D3326A611460B113C53
:1030A0002DE9FF4D21F0004807460C46B8F1795F45
:1030B00008DA00F063FC002801BF0020324904B0A8
:1030C000BDE8F08D3A4623461046194600F0B0FCA4
:1030D000054602462D480E460B460621784400F070
:1030E0005DF82A46334600F0A3FCDDE90223824660
:1030F0008B463846214600F09BFC04460F4652465C
:103100005B462846314600F093FC22463B4600F0E1
:1031100099FD07468A464FF0FF322846314601F0B6
:10312000FCF91B4A90450ADA3A46534600F08AFDFC
:1031300004B00022BDE8F04D134B00F077BD154AF6
:103140004245A8BFA8F500154FF00004B8BF124DC6
:1031500022462B4600F076FD0646884622462B4640
:103160000020094900F06EFD04460D463A465346DC
:103170003046414600F066FD04B022462B46BDE8CD
:10318000F04D00F053BD00000000F03FF0140000CF
:103190003333D33F0000E93F0000D23F2DE9F04137
:1031A0004F1E00EBC7010446D1E9000115461E463B
:1031B00037F006020DD02A46334600F039FC7F1E58
:1031C00004EBC703D3E9002300F0D0F937F006027F
:1031D000F1D1022F25D0042F13D0062F18BFBDE840
:1031E000F0812A46334600F023FCD4E90A2300F09C
:1031F000BDF92A46334600F01BFCD4E9082300F051
:10320000B5F92A46334600F013FCD4E9062300F052
:10321000ADF92A46334600F00BFCD4E9042300F054
:10322000A5F92A46334600F003FCD4E9022300F056
:103230009DF92A46334600F0FBFBD4E90023BDE8A4
:10324000F04100F093B900002DE9FF4D054621F053
:10325000004084B00C46B0F1795F0BDA2846FFF7E6
:1032600036FD042808BF00F06FF8284608B0214654
:10327000BDE8F08D2A460B46104600F0D9FB064605
:103280000F462A46234600F0D3FB804626488A464E
:1032900032463B4605217844FFF780FF834610986D
:1032A000029160B3214A224B4046514600F0C0FBD8
:1032B000CDE900015A4640465146029B00F0B8FB5A
:1032C00082468846DDE906014FF0FF3201F025F91C
:1032D0005246434600F0B6FC32463B4600F0A8FB9F
:1032E000DDE9062300F0AEFCDDE9002300F0AAFCD6
:1032F00008B02A462346BDE8F04D00F097BC0B46C7
:103300005A463046394600F093FB084A084B00F015
:103310002DF94246534600F08BFB08B02A4623465F
:10332000BDE8F04D00F022B92E1400004955555566
:103330005555C5BF012201F0F0B8002213461046D2
:10334000114600F0C3B90000024A0020110701F045
:10335000E4B8000001FDFFFF6421FCF74ABF000054
:10336000FDF752FFFFF78EFAFFF752F9FFF790F9DA
:10337000FFF7AEF9FFF714FAFEF7D2FF2A4D4FF42C
:103380007A742C6000212948FEF77AFB2E1D3460E8
:1033900004212648FEF774FB371D3C6008212348B2
:1033A000FEF76EFB07F10408C8F800400C211F4827
:1033B000FEF766FB6000286030603860C8F80000E7
:1033C000FDF750FB2C6034603C60C8F8004020469C
:1033D000FDF748FB0020286030603860C8F8000026
:1033E000092213491348FEF74BFDFDF74BFAFDF791
:1033F000CFF94FF08145104CFEF7D8FFFFF736F8B4
:10340000FDF740FC00F09CFE616800F0DFFFA84281
:10341000F6DBFDF737FC00F093FE6060FDF762F825
:10342000FFF7DEF9E8E70000342C014084010020BA
:10343000CC000020CC010020B400002000B5254BBA
:1034400021F0004287B09A4203DC0022134600922A
:103450002BE0214B9A4208D140B94FF00100FCF714
:103460001EFFFFF76AFF07B000BD03DBFFF762FF37
:1034700007B000BD02AAFFF74FFC10F003014FF0A8
:1034800001000DD0012914D002291AD00DF1080C29
:103490009CE80F00FFF704FE07B081F0004100BD7B
:1034A0000DF1080C00909CE80F00FFF7CDFE07B06F
:1034B00000BD0DF1080C9CE80F00FFF7F1FD07B00F
:1034C00000BD0DF1080C00909CE80F00FFF7BCFE5A
:1034D000E2E70000FB21E93F0000F07F10B5002982
:1034E0000AD00878002807D005487844FCF7B2FFD6
:1034F000002801D0002010BD0248784410BD000013
:10350000261200001E12000021F00042A2F16052BB
:10351000B2F5801F01F0004328BFD2F17F6C0BD9B8
:103520005FEA001C43EAC20242EB507018BF7047CA
:1035300028BF20F001007047B2F5801FBCBF1846BD
:1035400070474FEA410C1CF5001F02D2084600F0FC
:1035500006BF70B500F016FB00000089FFF7F6BF4C
:103560004FF00040A0F580007047000010B591EAD0
:10357000030F48BF83F0004300F16C83841A71EBA2
:10358000030C05D2121943EB0C03001B61EB0C0179
:10359000DFF824E14FEA1154A4EB135C1EEA430F59
:1035A00018BF9EEA445F73D023EA0E03DCF1200EBD
:1035B00021EA045143F4801332D322FA0CFE10EBBB
:1035C0000E0023FA0CFE41EB0E01CCF1200E03FAA3
:1035D0000EFE10EB0E0051F10001B1F5801FCCF191
:1035E000200E32D201EB045112FA0EF2BDE8104067
:1035F00058BF7047401C38BF5FEA420218BF70478F
:10360000002814BF20F0010041F100014FEA4103FE
:1036100013F5001F38BF7047A1F1C04100F000BB97
:10362000012A43EB0302ACF1200CDCF11F0E32BF88
:103630004FF0000E23FA0CF310EB030041EB0451A2
:10364000B4EB115FD0D0A1EB045101F58011490812
:103650005FEA300001EB04510ED350F1000038BF97
:1036600012FA0EFE08D1BDE81040C9E7401C38BF71
:103670005FEA4202CAD1C3E7BDE810404FEA410306
:1036800013F5001F38BF7047A1F1C04100F0C8BA60
:103690009EEA445F08D011EA5E0FBDE8104004BF07
:1036A00001F0004100207047BDE8104070B500F007
:1036B00069FA00BF64FBBE3E0000E0FF02494FF024
:1036C000000000F0F8BE00BF0000F87F2DE9C04107
:1036D00030B4DFF8A0C23CEA111418BF3CEA13145E
:1036E00000F0EC8081EA03051CEA111444EAD57469
:1036F00018BF1CEA131500F0C780A4EB05044FF0B7
:10370000004545EAC12145EAC32341EA505143EA55
:10371000525304F17F74994204F500344FEAC020FB
:103720004FEAC22208BF904200F09C804FEA136526
:103730000FF24016765D4FEA134506FB05F7C7F119
:10374000807706FB07F74FEAD737A7FB0368764277
:10375000C8F58038A7FB06CE38BFA8F1010807FBE3
:1037600008E64FF0000EA6FB028CE6FB03CEDCF170
:10377000000CCEF1004E38BFAEF1010EA6FB0C5886
:103780004FF000074FF00005E6FB0E87A1FB08C6CF
:10379000A0FB07CE16EB0E0645F10005E1FB076521
:1037A00015F1E04E7EBFA4F580345FEA46066D4118
:1037B00016F1800745F100054FEA17274FEA066624
:1037C00047EA0567A6F1DE46B6F1805F4FEA1525A8
:1037D0001FD9384624F0010C05EBC471BCF1FE6F13
:1037E00001EB0C1102D8F0BCBDE8008124425CBFA3
:1037F00001F5801E9EEAC47F02D4F0BCBDE80081C2
:10380000244238D4F0BCA1F1C041BDE8004100F031
:1038100007BA4FEAD22242EA43524FEAD323A7FB28
:1038200002864FEAD02040EA415007FB03661EEAB9
:103830000E0F4FEAD12105FB026658BFA6EB0056DA
:10384000B6EB00564FEA520E4EEAC37E18EB0E0E50
:1038500056EB530EBDD518EB02085E417F1C55F1A7
:103860000005B6E74FF480154FF000074FF0000653
:103870004FF00008ADE7F0BC4FF0000001F1C0418F
:1038800001F00041BDE8008111EA0C1F0CEA13159C
:1038900000D00CE013EA0C1F00F025804FF0000070
:1038A000F0BC81EA030101F00041BDE80081F0BCF9
:1038B000BDE8004181EA030100F0B2B9F0BCBDE807
:1038C000004170B500F05EF9097EFC3E00F007B8DB
:1038D00081EA03014FF0000001F00041704781EAE6
:1038E000030100F09DB9F0BCBDE800414FF00000BD
:1038F00021497047FFFDFBF9F7F5F4F2F0EEEDEB2F
:10390000E9E8E6E4E3E1E0DEDDDBDAD8D7D5D4D3DD
:10391000D1D0CFCDCCCBCAC8C7C6C5C4C2C1C0BF29
:10392000BEBDBCBBBAB9B8B7B6B5B4B3B2B1B0AF2F
:10393000AEADACABAAA9A8A8A7A6A5A4A3A3A2A113
:10394000A09F9F9E9D9C9C9B9A99999897979695CE
:1039500095949393929191908F8F8E8E8D8C8C8B6A
:103960008B8A8989888887878685858484838382F2
:10397000828181800000FF070000F87F4FEA410349
:103980004FEA5353A3F58063D3F11E03C8BFD3F1AD
:10399000210C0CDD4FF0004242EAC12242EA5052B3
:1039A00032FA03FC8CEAE17CACEBE1707047102B3F
:1039B000C4BF0020704703F5787CBCF1FF3F04D002
:1039C0006FF0004282EA2100704770B500F0DAF82B
:1039D0004992248000207047F2E710F0004248BF6F
:1039E0004042B0FA80F310FA03F10AD0C3F11D038C
:1039F00003F580634FEA415002EB035202EBD12101
:103A000070474FF000007047B0FA80F310FA03F1EE
:103A10000AD0C3F11D0303F580634FEA41504FEA1A
:103A2000035202EBD12170474FF0000070470000B5
:103A3000DFF848C170B51CEA111E1EBF1CEA131541
:103A40009EEA0C0F95EA0C0F00F06F8081EA0304E8
:103A500023EA4C134EEAD47E21EA4C1141F4801142
:103A600043F48013AE44A1FB024CA0FB0365AEF10E
:103A70007F7E361955EB0C05A1FB034C4CF100037E
:103A8000A0FB021C16EB0C06654153F10003094232
:103A900018BF46F0010613F4007F0BD14FEA033143
:103AA0004FEA0530340341EA155140EA16506FF0F1
:103AB00003020AE04FEAC3214FEAC520F40241EABB
:103AC000555140EA56506FF0020202EB2E4201EBD4
:103AD000025585EACE710AD05FEA440C18BF24F083
:103AE000004450F1000041F1000120EAD47040F29E
:103AF000FE7C624500D270BDA84214BF4FF08044E6
:103B00004FF04044002E08BF0024BEF1806FA8BFD4
:103B1000A1F1C041BDE8704080F282804FF000000A
:103B200001F1C04101F0004170479EEA0C0F0CEA20
:103B3000131518BF95EA0C0F06D04FF0000081EA6C
:103B4000030E0EF0004170BD00F01CF88900013E2C
:103B500000F007B800F009B84FEA430C5FEA5C5C7C
:103B600008D081EA030100F05BB84FEA410C5FEA3C
:103B70005C5CF6D14FF00000014970470000FF0780
:103B80000000F87F0EF1020E2EF0030E5EF8046BBB
:103B9000364205D4012A43EB030515F5001F12D860
:103BA000012841EB010C1CF5001F0CD80ED14FEA87
:103BB000D17C15F5001F0CEB4C0C0CF1020C08BF6E
:103BC0004CEBD37C04E04FF0080C01E04FEAD37CCF
:103BD0000CEB4C0526FA05F606F00706B6F1040CC8
:103BE00006D20EEB860CBDE870404CF0010C60472D
:103BF000DFE80CF0090B02024FF000414FF000002B
:103C0000A1F5002170BD19461046012851EB0104B1
:103C100018BFD4F5001484BF002001F0004170BD2E
:103C20000808A0F500114FEA3101704791EA030F2F
:103C300010B581F000413FF5A1AC83F0004300F0E6
:103C400009B8000010B591EA030F48BF83F00043A4
:103C50003FF594AC841A71EB030C07D212198CF067
:103C6000004C43EB0C03001B61EB0C01DFF8A4E1FB
:103C70004FEA1154A4EB135C1EEA430F18BF9EEAEF
:103C8000445F00F0B08023EA6E03524221EA0451FF
:103C9000C3EB6E0338BF5B1EDCF1200E25D322FA86
:103CA0000CFE10EB0E0043FA0CFE41EB0E01CCF1C2
:103CB000200E03FA0EFE10EB0E0051F10001CCF1C4
:103CC000200E29D412FA0EF201EB0451BDE8104087
:103CD00058BF7047401C1CBFB2F1004F704700280E
:103CE0000CBF491C20F00100704712EB020E43EBA1
:103CF000030218BF4FF0010E4EEA4202ACF1200C55
:103D0000DCF11E0E54D943FA0CFE10EB0E0051F1FB
:103D1000FF31CCF11E0ED5D50EF1010E12FA0EFEBA
:103D2000404141EB010101EB445C5FEA5C5C10D96E
:103D300010EBDE7001EB045138BFBEF1004FBDE85F
:103D4000104018BF704700280CBF491C20F001002C
:103D5000704730D24FEAD42C11F5001124F40064DE
:103D60001BD0B1FA81F20B3AA41AA41ED2F120039F
:103D7000914030FA03F31943904001EBCC71002CD1
:103D800001EB0451BDE81040A8BF704701F1C041EC
:103D90004FF0000001F000417047B0FA80F310FAD4
:103DA00003F100D110BDE41A173C4805C90AE4E745
:103DB00001EB045110BD491001EB0451BDE8104066
:103DC0004FEA300002E04FF0000170474A0008BFA0
:103DD0000042F8D0B2F5001F28BF704701F0004143
:103DE0004FF0000070479EEA445F07D011EA5E0F73
:103DF000BDE8104004BF002100207047BDE810401E
:103E000070B5FFF7BFFE00BF40DFF63E83F0004114
:103E1000104670470000E0FF43004FEAD30C4FEA22
:103E20003C0C43401FBF40070CF1605113F0FE4FA4
:103E300070471CF0006F03D100200CF00041704768
:103E40000CF0004343EA507010B540EACC0000F09B
:103E500040FA00BF000000924FEA0001FFF7E0BE09
:103E60004FF000414FF00000A1F500217047000025
:103E700090EA010F48BF81F0004100F1AE82421A82
:103E80003CBF801A89184FEAD0524FF07F4C1CEA91
:103E9000410FA2EBD15318BF9CEA026F00F03B80A8
:103EA0004FF0004C4CEA00204CEA012121FA03FCBF
:103EB00010EB0C0C1ED202F1FF325FEA1C2040EB2B
:103EC000C25038BF70471CF07F0F4FEA400C18BF3C
:103ED000BCF17F4F38BF7047C3F12003994008BF42
:103EE00020F00100BCF17F4F38BF7047A0F1C04007
:103EF00000F035BA4FEA3C00000A40EBC25028BF40
:103F00001CF0FF0F4FEA400CE6D018BFBCF17F4F0A
:103F100038BF7047EAE79CEA026F05D010EA5C0FF1
:103F200008BF00F00040704710B500F0D2F900BFA4
:103F300064FBBE3E401058BFC0F14040491058BF1E
:103F4000C1F140418142EFF3008070474FF47F0C94
:103F50001CEAD0121EBF1CEAD11392EA0C0F93EA9E
:103F60000C0F00F0858090EA010F48BF42F4807288
:103F700040F4000C41F400002CF07F4120F07F4021
:103F800000B58142A2EB03020FF2081CACEB504ECD
:103F9000C0F100009EF800E04FEA4E0E00FB0EFC60
:103FA00038BF49004FEA2C1C02F5FA020CFB0EF355
:103FB0004FEACE1E4FEA112C4FEAC1210EEB635E91
:103FC00042EB22420EFB0CFC4FEA1C5300FB031198
:103FD0004FEA112C4FEA01310EFB0CFC4FEADC4C8E
:103FE00000FB0C11C14228BF09184CEB03335DF8EC
:103FF00004EB10EB410143EBC250B2F57C0F38BF2C
:10400000704729D512F0F00F1CBF00F1C04000F03E
:1040100000407047008182838485868788898B8CE5
:104020008D8E8F919293959697999A9C9D9FA0A221
:10403000A3A5A7A8AAACAEB0B2B3B5B7B9BCBEC071
:10404000C2C5C7C9CCCED1D4D7D9DCDFE2E6E9EC12
:10405000F0F3F7FAFE0000004FEA400C0CF1807C10
:10406000BCF17E4F28BF7047B0F1C04000F077B977
:1040700090EA010F0CEAD11348BF42F48072624506
:1040800038BF634507D213F47F0F16D080EA0100D2
:1040900000F00040704710B500F01BF9097EFC3EAF
:1040A00000F005B880EA010000F00040704780EAA7
:1040B000010000F0004000F052B912F47F0F04BF7D
:1040C0000248704780EA010000F049B90000C07F53
:1040D000C10DD1F19E0206DB4FEA002343F00043FD
:1040E00023FA02F07047004207D54FEA4001B1F1D0
:1040F000FE4F02D24FF00000704710B500F0E9F813
:1041000049922480002070476FEA20007047000029
:1041100010F0004148BF4042B0FA80F310FA03F2B9
:10412000C3F19D030BD051EAC35101EB122053069A
:1041300038BF704700F1010008BF20F00100704750
:10414000B0FA80F310FA03F2C3F19D030AD0D90547
:1041500001EB1220530638BF704700F1010008BF81
:1041600020F001007047000050EA010C00F11380BC
:104170001CF5000F58BFBCF5000F01D488427047F2
:1041800007D710F5000F58BF11F5000F15D488425E
:104190007047894270471CF5000F04D5BCF5000F2D
:1041A000F7D5814270474FF0807C1CEB400F38BF41
:1041B0001CEB410F01D28142704710B500F089F825
:1041C000922449004FF000504FF08051FFF7B2BEEB
:1041D0004FF47F0C1CEAD0121EBF1CEAD11392EAE6
:1041E0000C0F93EA0C0F00F0478090EA010F48BFD4
:1041F00042F480724FF0004C4CEA00204CEA01215E
:1042000002EB0302A0FB0113A2F50002002918BF74
:1042100043F001035B0028BF4FEA330342EB224225
:104220005FEA132C4CEBC2502EBFBCEB436FB2F5D0
:104230007C0F70474FEA036CBCF1004F08BF20F0C1
:104240000100B2F57C0F38BF70470BD582F0FF023A
:1042500012F5803FC8BF704700F1C040D8BF00F0E2
:104260000040704700F5000C5FEA4C0C48BF7047F7
:10427000B0F1C04000F073B890EA010F0CEAD1131E
:1042800048BF42F48072624538BF634504D280EA79
:10429000010000F00040704710B500F01AF800BFB0
:1042A0008900013E00F007B800F009B85FEA410C50
:1042B0005FEA1C6C08D080EA010000F050B85FEAA9
:1042C000400C5FEA1C6CF6D14FF00040A0F5800076
:1042D00070470EF1020E2EF0030E5EF8044B2442DE
:1042E00004D44FEA4102B2F17F4F11D84FEA4003A4
:1042F000B3F17F4F0CD80ED14FEAD07CB2F17F4F93
:104300000CEB4C0C0CF1020C08BF4CEBD17C04E024
:104310004FF0080C01E04FEAD17C0CEB4C0324FA7F
:1043200003F404F00704B4F1040C06D20EEB840C81
:10433000BDE810404CF0010C6047DFE80CF00708C6
:1043400002024FF00040A0F5800010BD0846420078
:1043500018BFD2F1807288BF00F0004010BDFF216D
:1043600041EAD050C005704751EA000C00F11380BB
:104370001CF5000F58BFBCF5000F01D481427047F7
:1043800007D711F5000F58BF10F5000F15D4814263
:104390007047894270471CF5000F04D5BCF5000F2B
:1043A000F7D5884270474FF0807C1CEB410F38BF37
:1043B0001CEB400F01D28842704780EA010081EA7D
:1043C000000180EA0100FFF7F8BE000090EA010F4B
:1043D00048BF81F000413FF552AD421A04D882F047
:1043E0000042A0EB020011444FEAD0524FF07F4C44
:1043F0001CEA410FA2EBD15318BF9CEA026F4AD0CE
:104400004FF0004C4CEA00204CEA012121FA03FC59
:10441000B0EB0C0C0FD412F0FE0F36D05FEA4C005C
:104420001DD5001240EBC25038BF70471CF03F0F43
:1044300018BF70470BE0A2F101025FEA1C2040EBBD
:10444000C25038BF70471CF07F0F18BF7047C3F1D0
:104450002003994014BF401E20F0010070478008DF
:104460004FEA122308BF7047B0FA80FCA2EB0C029F
:10447000CCF1280C60FA0CF093EA122F04BF00EB89
:10448000C25070474FEAC3707047130A5FEADC10EE
:1044900008BF7047F6E79CEA026F04D010EA5C0F91
:1044A00008BF0020704710B5FFF713FF40DFF63E4E
:1044B00081F0004070470CF00F03092B08BF082063
:1044C00000F059800A2B0BD0082B18BF704708BF8B
:1044D0001CF0400F0AD04FF000004FF00001704771
:1044E0001CF0400F18BF4FF0004070471CF0100F39
:1044F00008D020F0704300F07F4242EAD3014FEA37
:104500004370704700F0604021F07F4242EA0002B1
:1045100001F07F4040EA727070474FF0FF0C4CF49E
:10452000E06C1CEA11531CBF9CEA030C9445C2BF0B
:10453000DA4201EB02517047002B0DD0BCF1000FA5
:104540000FD0002A01F00041A4BF41F0E04141F04A
:104550007F614FF00000704701F000414FF0000014
:10456000704750EA01334FF09B0C18BF4CF0806C41
:104570007FF4A4A870471CF4801F11D01CF4E02F16
:1045800003D06FEACC31490070474FF04050EFF351
:10459000008222F0704242EA000282F300887047F3
:1045A0004FF00000704701020203040506070809E6
:1045B0000A0B0C0D0E0F1010000000000000000090
:1045C00001020304060708090000000001020304B9
:1045D0004C5555555555A53F7751C1166CC156BF21
:1045E0009015CB19A001FA3EAD529C804F7E92BE31
:1045F000C4B1B4BD9EEE213ED43888BEE9FAA8BD50
:1046000000004054FB21F93F3163621A61B4D03D90
:104610000000601A61B4D03D7370032E8A19A33B69
:104620000000002E8A19A33BC14920259A837B39BB
:1046300000000000000000006E83F9A22915444E1E
:10464000D15727FCC0DD34F5999562DB4190433C9E
:10465000AB6351FE61C5BBDE3A6E24B7E0D24D427A
:10466000EA2E49061C92D1091CEB1DFE3EA729B17A
:10467000F53582E88444BB2E26709CE9417E5FB408
:1046800039D69139F43953838B5F849C3B28F9BD2B
:10469000FF97F81F0F9805DE8B112FEF1F6D0A5A39
:1046A000CF7E366DB709CB27663F464F2DEA5F9E1A
:1046B000C7BA27757BF1E5EBF739073DEA92528AD5
:1046C000B15FFB6B085D8D1FA6F810111111813FC2
:1046D000D561C119A0012ABF7DFEB157E31DC73EB8
:1046E000EB9C2B8AE6E55ABE7CD5CF5A3AD9E53DFC
:1046F0002048000800000020CC000000280100082D
:10470000EC480008CC000020AC0700004401000881
:104710001001000043000000F8FFFFFF0040404090
:104720004040404040404141414141404040404084
:104730004040404040404040404040404005020230
:1047400002020202020202020202020202202020EF
:10475000202020202020200202020202020290904B
:104760009090909010101010101010101010101049
:10477000101010101010101002020202020288889D
:1047800088888888080808080808080808080808A9
:104790000808080808080808020202024000000091
:1047A0000000000000000000000000000000000009
:1047B00000000000000000000000000000000000F9
:1047C00000000000000000000000000000000000E9
:1047D00000000000000000000000000000000000D9
:1047E00000000000000000000000000000000000C9
:1047F00000000000000000000000000000000000B9
:1048000000000000000000000000000000000000A8
:104810000000000000000000000000000000000098
:104820000000000000000000000000000000000088
:104830000000000000000000000000000000000078
:104840000000000000000000000000000000000068
:104850000000000000000000000000000000000058
:10486000000000006666A63F0AD7233D0000904185
:10487000900100006666A63F0AD7233D00009041E4
:1048800090010000000080400AD7A33C0000000017
:104890009001000000000000000000000000000087
:1048A0000000000000000000000000000000000008
:1048B00000000000000000000000000000000000F8
:1048C00000000000000000000000000000000000E8
:1048D00000000000E80300000000000001000000EC
:0C48E00010000000000000000024F400A4
:04000005080000ED02
:00000001FF
